{
  "_format": "hh-sol-artifact-1",
  "contractName": "EthSignV4",
  "sourceName": "contracts/EthSignV4.sol",
  "abi": [
    {
      "anonymous": false,
      "inputs": [
        {
          "indexed": false,
          "internalType": "address",
          "name": "previousAdmin",
          "type": "address"
        },
        {
          "indexed": false,
          "internalType": "address",
          "name": "newAdmin",
          "type": "address"
        }
      ],
      "name": "AdminChanged",
      "type": "event"
    },
    {
      "anonymous": false,
      "inputs": [
        {
          "indexed": true,
          "internalType": "address",
          "name": "beacon",
          "type": "address"
        }
      ],
      "name": "BeaconUpgraded",
      "type": "event"
    },
    {
      "anonymous": false,
      "inputs": [
        {
          "indexed": false,
          "internalType": "bytes32",
          "name": "contractId",
          "type": "bytes32"
        },
        {
          "indexed": false,
          "internalType": "string",
          "name": "name",
          "type": "string"
        },
        {
          "indexed": false,
          "internalType": "address",
          "name": "initiator",
          "type": "address"
        }
      ],
      "name": "ContractCreated",
      "type": "event"
    },
    {
      "anonymous": false,
      "inputs": [
        {
          "indexed": false,
          "internalType": "bytes32",
          "name": "contractId",
          "type": "bytes32"
        },
        {
          "indexed": false,
          "internalType": "address",
          "name": "party",
          "type": "address"
        }
      ],
      "name": "ContractHidden",
      "type": "event"
    },
    {
      "anonymous": false,
      "inputs": [
        {
          "indexed": false,
          "internalType": "bytes32",
          "name": "contractId",
          "type": "bytes32"
        }
      ],
      "name": "ContractSigningCompleted",
      "type": "event"
    },
    {
      "anonymous": false,
      "inputs": [
        {
          "indexed": true,
          "internalType": "address",
          "name": "previousOwner",
          "type": "address"
        },
        {
          "indexed": true,
          "internalType": "address",
          "name": "newOwner",
          "type": "address"
        }
      ],
      "name": "OwnershipTransferred",
      "type": "event"
    },
    {
      "anonymous": false,
      "inputs": [
        {
          "indexed": false,
          "internalType": "bytes32",
          "name": "contractId",
          "type": "bytes32"
        },
        {
          "indexed": false,
          "internalType": "address[]",
          "name": "signers",
          "type": "address[]"
        },
        {
          "indexed": false,
          "internalType": "address[]",
          "name": "viewers",
          "type": "address[]"
        }
      ],
      "name": "RecipientsAdded",
      "type": "event"
    },
    {
      "anonymous": false,
      "inputs": [
        {
          "indexed": false,
          "internalType": "bytes32",
          "name": "contractId",
          "type": "bytes32"
        },
        {
          "indexed": false,
          "internalType": "address",
          "name": "signer",
          "type": "address"
        }
      ],
      "name": "SignerSigned",
      "type": "event"
    },
    {
      "anonymous": false,
      "inputs": [
        {
          "indexed": true,
          "internalType": "address",
          "name": "implementation",
          "type": "address"
        }
      ],
      "name": "Upgraded",
      "type": "event"
    },
    {
      "inputs": [],
      "name": "STATUS_BITMASK",
      "outputs": [
        {
          "internalType": "uint8",
          "name": "",
          "type": "uint8"
        }
      ],
      "stateMutability": "view",
      "type": "function"
    },
    {
      "inputs": [],
      "name": "STEP_BITMASK",
      "outputs": [
        {
          "internalType": "uint8",
          "name": "",
          "type": "uint8"
        }
      ],
      "stateMutability": "view",
      "type": "function"
    },
    {
      "inputs": [],
      "name": "chainId",
      "outputs": [
        {
          "internalType": "uint256",
          "name": "",
          "type": "uint256"
        }
      ],
      "stateMutability": "view",
      "type": "function"
    },
    {
      "inputs": [
        {
          "internalType": "string",
          "name": "name",
          "type": "string"
        },
        {
          "internalType": "uint32",
          "name": "expiry_",
          "type": "uint32"
        },
        {
          "internalType": "bytes32",
          "name": "rawDataHash_",
          "type": "bytes32"
        },
        {
          "internalType": "uint8[]",
          "name": "signersPerStep",
          "type": "uint8[]"
        },
        {
          "internalType": "address[]",
          "name": "signers",
          "type": "address[]"
        },
        {
          "internalType": "uint168[]",
          "name": "signersData",
          "type": "uint168[]"
        },
        {
          "internalType": "address[]",
          "name": "viewers",
          "type": "address[]"
        }
      ],
      "name": "create",
      "outputs": [
        {
          "internalType": "bytes32",
          "name": "contractId",
          "type": "bytes32"
        }
      ],
      "stateMutability": "nonpayable",
      "type": "function"
    },
    {
      "inputs": [
        {
          "internalType": "uint168",
          "name": "signerData",
          "type": "uint168"
        }
      ],
      "name": "decodeSignerData",
      "outputs": [
        {
          "internalType": "address",
          "name": "signer",
          "type": "address"
        },
        {
          "internalType": "uint8",
          "name": "step",
          "type": "uint8"
        },
        {
          "internalType": "uint8",
          "name": "hasSigned",
          "type": "uint8"
        }
      ],
      "stateMutability": "pure",
      "type": "function"
    },
    {
      "inputs": [
        {
          "internalType": "address",
          "name": "signer",
          "type": "address"
        },
        {
          "internalType": "uint8",
          "name": "step",
          "type": "uint8"
        }
      ],
      "name": "encodeSignerData",
      "outputs": [
        {
          "internalType": "uint168",
          "name": "encodedSignerData",
          "type": "uint168"
        }
      ],
      "stateMutability": "pure",
      "type": "function"
    },
    {
      "inputs": [
        {
          "internalType": "bytes32",
          "name": "contractId",
          "type": "bytes32"
        }
      ],
      "name": "getContract",
      "outputs": [
        {
          "components": [
            {
              "internalType": "uint32",
              "name": "expiry",
              "type": "uint32"
            },
            {
              "internalType": "bytes32",
              "name": "rawDataHash",
              "type": "bytes32"
            },
            {
              "internalType": "uint8[]",
              "name": "signersLeftPerStep",
              "type": "uint8[]"
            },
            {
              "internalType": "uint168[]",
              "name": "packedSignersAndStatus",
              "type": "uint168[]"
            }
          ],
          "internalType": "struct EthSignV4.Contract",
          "name": "",
          "type": "tuple"
        }
      ],
      "stateMutability": "view",
      "type": "function"
    },
    {
      "inputs": [
        {
          "internalType": "bytes32",
          "name": "contractId",
          "type": "bytes32"
        }
      ],
      "name": "hide",
      "outputs": [],
      "stateMutability": "nonpayable",
      "type": "function"
    },
    {
      "inputs": [
        {
          "internalType": "uint256",
          "name": "chainId_",
          "type": "uint256"
        },
        {
          "internalType": "address",
          "name": "forwarder",
          "type": "address"
        }
      ],
      "name": "initialize",
      "outputs": [],
      "stateMutability": "nonpayable",
      "type": "function"
    },
    {
      "inputs": [
        {
          "internalType": "address",
          "name": "forwarder",
          "type": "address"
        }
      ],
      "name": "isTrustedForwarder",
      "outputs": [
        {
          "internalType": "bool",
          "name": "",
          "type": "bool"
        }
      ],
      "stateMutability": "view",
      "type": "function"
    },
    {
      "inputs": [],
      "name": "owner",
      "outputs": [
        {
          "internalType": "address",
          "name": "",
          "type": "address"
        }
      ],
      "stateMutability": "view",
      "type": "function"
    },
    {
      "inputs": [],
      "name": "renounceOwnership",
      "outputs": [],
      "stateMutability": "nonpayable",
      "type": "function"
    },
    {
      "inputs": [
        {
          "internalType": "bytes32",
          "name": "contractId",
          "type": "bytes32"
        },
        {
          "internalType": "uint256",
          "name": "index",
          "type": "uint256"
        },
        {
          "internalType": "bytes",
          "name": "signature",
          "type": "bytes"
        }
      ],
      "name": "sign",
      "outputs": [],
      "stateMutability": "nonpayable",
      "type": "function"
    },
    {
      "inputs": [
        {
          "internalType": "address",
          "name": "newOwner",
          "type": "address"
        }
      ],
      "name": "transferOwnership",
      "outputs": [],
      "stateMutability": "nonpayable",
      "type": "function"
    },
    {
      "inputs": [
        {
          "internalType": "address",
          "name": "newImplementation",
          "type": "address"
        }
      ],
      "name": "upgradeTo",
      "outputs": [],
      "stateMutability": "nonpayable",
      "type": "function"
    },
    {
      "inputs": [
        {
          "internalType": "address",
          "name": "newImplementation",
          "type": "address"
        },
        {
          "internalType": "bytes",
          "name": "data",
          "type": "bytes"
        }
      ],
      "name": "upgradeToAndCall",
      "outputs": [],
      "stateMutability": "payable",
      "type": "function"
    }
  ],
  "bytecode": "0x60a06040523060601b60805234801561001757600080fd5b5060805160601c6123fe61004b600039600081816103ea0152818161042a015281816104b301526104f301526123fe6000f3fe6080604052600436106100f35760003560e01c806393f2e69e1161008a578063bc60d0ff11610059578063bc60d0ff146102e6578063da35a26f14610306578063e16c7d9814610326578063f2fde38b1461035357600080fd5b806393f2e69e146102345780639a8a059214610294578063aa3c029e146102aa578063ab7a0c4b146102d157600080fd5b80635ed78ed6116100c65780635ed78ed6146101a957806365f2e2d5146101c9578063715018a6146101f75780638da5cb5b1461020c57600080fd5b806328ea3a5a146100f85780633659cfe6146101355780634f1ef28614610157578063572b6c051461016a575b600080fd5b34801561010457600080fd5b50610118610113366004611c8b565b610373565b6040516001600160a81b0390911681526020015b60405180910390f35b34801561014157600080fd5b50610155610150366004611bb4565b6103df565b005b610155610165366004611bce565b6104a8565b34801561017657600080fd5b50610199610185366004611bb4565b60c9546001600160a01b0391821691161490565b604051901515815260200161012c565b3480156101b557600080fd5b506101556101c4366004611cbd565b610562565b3480156101d557600080fd5b506101e96101e4366004611d4e565b6105af565b60405190815260200161012c565b34801561020357600080fd5b50610155610843565b34801561021857600080fd5b506033546040516001600160a01b03909116815260200161012c565b34801561024057600080fd5b5061026b61024f366004611e72565b600881901c6001600160a01b031691600182811c607f16921690565b604080516001600160a01b03909416845260ff928316602085015291169082015260600161012c565b3480156102a057600080fd5b506101e960fb5481565b3480156102b657600080fd5b506102bf600181565b60405160ff909116815260200161012c565b3480156102dd57600080fd5b506102bf60fe81565b3480156102f257600080fd5b50610155610301366004611cd5565b610898565b34801561031257600080fd5b50610155610321366004611e8c565b610d3b565b34801561033257600080fd5b50610346610341366004611cbd565b610e86565b60405161012c91906121aa565b34801561035f57600080fd5b5061015561036e366004611bb4565b610fab565b600060fe60ff8316106103c15760405162461bcd60e51b815260206004820152601160248201527053746570206f7574206f662072616e676560781b60448201526064015b60405180910390fd5b5060089190911b610100600160a81b031660019190911b60fe161790565b306001600160a01b037f00000000000000000000000000000000000000000000000000000000000000001614156104285760405162461bcd60e51b81526004016103b890612044565b7f00000000000000000000000000000000000000000000000000000000000000006001600160a01b031661045a611062565b6001600160a01b0316146104805760405162461bcd60e51b81526004016103b890612090565b61048981611090565b604080516000808252602082019092526104a5918391906110d9565b50565b306001600160a01b037f00000000000000000000000000000000000000000000000000000000000000001614156104f15760405162461bcd60e51b81526004016103b890612044565b7f00000000000000000000000000000000000000000000000000000000000000006001600160a01b0316610523611062565b6001600160a01b0316146105495760405162461bcd60e51b81526004016103b890612090565b61055282611090565b61055e828260016110d9565b5050565b7fc6c7eac6763ecb85001e3129c36ca4c97e0c311a3927794f3ef8a81ce74715428161058c611224565b604080519283526001600160a01b0390911660208301520160405180910390a150565b600060fb548b8a8a88886040516020016105ce96959493929190612237565b60408051601f198184030181529181528151602092830120600081815260fd90935291206001810154919250901561063a5760405162461bcd60e51b815260206004820152600f60248201526e436f6e74726163742065786973747360881b60448201526064016103b8565b428c63ffffffff161180610652575063ffffffff8c16155b61068f5760405162461bcd60e51b815260206004820152600e60248201526d496e76616c69642065787069727960901b60448201526064016103b8565b8685146106d25760405162461bcd60e51b81526020600482015260116024820152700417272617973206d69736d61746368203607c1b60448201526064016103b8565b7ff0662a62c39bb6a651ed42b995180fb1e728e04c17799dedefb8a3525e227b48828f8f6106fe611224565b60405161070e9493929190611fe8565b60405180910390a17fc32f2535ab4567f51c7487eb8aaed2e12c29a513dcf813ddc7949af402ad6ca0828989878760405161074d959493929190611f8e565b60405180910390a16000805b8a8110156107b5578b8b8281811061078157634e487b7160e01b600052603260045260246000fd5b90506020020160208101906107969190611eae565b6107a39060ff16836122d8565b91506107ae8161235a565b9050610759565b508088146107f95760405162461bcd60e51b8152602060048201526011602482015270417272617973206d69736d61746368203160781b60448201526064016103b8565b815463ffffffff191663ffffffff8e16178255600182018c9055610821600283018c8c6119c8565b50610830600383018888611a71565b5050509c9b505050505050505050505050565b61084b611224565b6001600160a01b03166108666033546001600160a01b031690565b6001600160a01b03161461088c5760405162461bcd60e51b81526004016103b89061212a565b6108966000611233565b565b600084815260fd602052604090206109066108b1611224565b6108ca60fc546108c5898660010154611285565b6112e1565b85858080601f01602080910402602001604051908101604052809392919081815260200183838082843760009201919091525061130892505050565b6109465760405162461bcd60e51b8152602060048201526011602482015270496e76616c6964207369676e617475726560781b60448201526064016103b8565b6000600160fe60ff1683600301878154811061097257634e487b7160e01b600052603260045260246000fd5b600091825260209091200154166001600160a81b0390811690911c169050610998611224565b6001600160a01b031660088360030187815481106109c657634e487b7160e01b600052603260045260246000fd5b6000918252602090912001546001600160a81b0316901c6001600160a01b031614610a255760405162461bcd60e51b815260206004820152600f60248201526e0a6d2cedccae440dad2e6dac2e8c6d608b1b60448201526064016103b8565b600160ff16826003018681548110610a4d57634e487b7160e01b600052603260045260246000fd5b600091825260209091200154166001600160a81b031615610aa15760405162461bcd60e51b815260206004820152600e60248201526d105b1c9958591e481cda59db995960921b60448201526064016103b8565b8060011480610afc575081600201600282610abc91906122f0565b81548110610ada57634e487b7160e01b600052603260045260246000fd5b60009182526020918290209181049091015460ff601f9092166101000a900416155b610b385760405162461bcd60e51b815260206004820152600d60248201526c2737ba103cb7bab9103a3ab93760991b60448201526064016103b8565b815463ffffffff161580610b54575081544263ffffffff909116115b610b8a5760405162461bcd60e51b8152602060048201526007602482015266115e1c1a5c995960ca1b60448201526064016103b8565b6001826003018681548110610baf57634e487b7160e01b600052603260045260246000fd5b600091825260209091200180546001600160a81b03928316928116929092176001600160a81b0319909216919091179055600160028301610bf082846122f0565b81548110610c0e57634e487b7160e01b600052603260045260246000fd5b90600052602060002090602091828204019190068282829054906101000a900460ff16610c3b9190612307565b92506101000a81548160ff021916908360ff1602179055507f1e9d7f1e914f1e3c03237c36ad531b41c9140413f0a4d471d9da3156d14f0c3086610c7d611224565b604080519283526001600160a01b0390911660208301520160405180910390a160028201610cac6001836122f0565b81548110610cca57634e487b7160e01b600052603260045260246000fd5b60009182526020918290209181049091015460ff601f9092166101000a900416158015610cfa5750600282015481145b15610d33576040518681527f7ecc47f426e9eeb810dc377afa3170124218b73b4b79a50aba48e7b0c97a613b9060200160405180910390a15b505050505050565b600054610100900460ff16610d565760005460ff1615610d5a565b303b155b610d765760405162461bcd60e51b81526004016103b8906120dc565b600054610100900460ff16158015610d98576000805461ffff19166101011790555b610da28383611464565b60fb54604080517fd87cd6ef79d4e2b95e15ce8abf732db51ec771f1ca2edccf22a46c729ac5647260208201527f60570743c3aa81622759289f024257add09e8c4aa0cf1732651de4dd5231d716918101919091527f13600b294191fc92924bb3ce4b969c1e7e2bab8f4c93c3fc6d0a51733df3c060606082015260808101919091523060a08201527fad27b301e5f37100ff157cc76d31929cff6e67812684f9f8bc3d7f70865dd81060c082015260e00160408051601f19818403018152919052805160209091012060fc558015610e81576000805461ff00191690555b505050565b60408051608080820183526000808352602080840182905260608486018190528085015285825260fd81529084902084519283018552805463ffffffff1683526001810154838301526002810180548651818502810185018852818152959694959294860193830182828015610f3957602002820191906000526020600020906000905b825461010083900a900460ff16815260206001928301818104948501949093039092029101808411610f0a5790505b5050505050815260200160038201805480602002602001604051908101604052809291908181526020018280548015610f9b57602002820191906000526020600020905b81546001600160a81b03168152600190910190602001808311610f7d575b5050505050815250509050919050565b610fb3611224565b6001600160a01b0316610fce6033546001600160a01b031690565b6001600160a01b031614610ff45760405162461bcd60e51b81526004016103b89061212a565b6001600160a01b0381166110595760405162461bcd60e51b815260206004820152602660248201527f4f776e61626c653a206e6577206f776e657220697320746865207a65726f206160448201526564647265737360d01b60648201526084016103b8565b6104a581611233565b7f360894a13ba1a3210667c828492db98dca3e2076cc3735a920a3ca505d382bbc546001600160a01b031690565b611098611224565b6001600160a01b03166110b36033546001600160a01b031690565b6001600160a01b0316146104a55760405162461bcd60e51b81526004016103b89061212a565b60006110e3611062565b90506110ee846114f5565b6000835111806110fb5750815b1561110c5761110a848461159a565b505b7f4910fdfa16fed3260ed0e7147f7cc6da11a60208b5b9406d12a635614ffd9143805460ff1661121d57805460ff191660011781556040516001600160a01b038316602482015261118b90869060440160408051601f198184030181529190526020810180516001600160e01b0316631b2ce7f360e11b17905261159a565b50805460ff1916815561119c611062565b6001600160a01b0316826001600160a01b0316146112145760405162461bcd60e51b815260206004820152602f60248201527f45524331393637557067726164653a207570677261646520627265616b73206660448201526e75727468657220757067726164657360881b60648201526084016103b8565b61121d85611685565b5050505050565b600061122e6116c5565b905090565b603380546001600160a01b038381166001600160a01b0319831681179093556040519116919082907f8be0079c531659141344cd1fd0a4f28419497f9722a3daafe3b4186f6b6457e090600090a35050565b604080517f14bd91134e3467a07c38fd0cbaa1e572cbf6bab435886649b8818f67548650546020820152908101839052606081018290526000906080015b60405160208183030381529060405280519060200120905092915050565b60405161190160f01b602082015260228101839052604281018290526000906062016112c3565b600080600061131785856116ed565b9092509050600081600481111561133e57634e487b7160e01b600052602160045260246000fd5b14801561135c5750856001600160a01b0316826001600160a01b0316145b1561136c5760019250505061145d565b600080876001600160a01b0316631626ba7e60e01b8888604051602401611394929190611fc7565b60408051601f198184030181529181526020820180516001600160e01b03166001600160e01b03199094169390931790925290516113d29190611f72565b600060405180830381855afa9150503d806000811461140d576040519150601f19603f3d011682016040523d82523d6000602084013e611412565b606091505b5091509150818015611425575080516020145b801561145657508051630b135d3f60e11b9061144a9083016020908101908401611d26565b6001600160e01b031916145b9450505050505b9392505050565b600054610100900460ff1661147f5760005460ff1615611483565b303b155b61149f5760405162461bcd60e51b81526004016103b8906120dc565b600054610100900460ff161580156114c1576000805461ffff19166101011790555b60fb8390556114ce61175d565b6114d782611794565b6114df6117cc565b8015610e81576000805461ff0019169055505050565b803b6115595760405162461bcd60e51b815260206004820152602d60248201527f455243313936373a206e657720696d706c656d656e746174696f6e206973206e60448201526c1bdd08184818dbdb9d1c9858dd609a1b60648201526084016103b8565b7f360894a13ba1a3210667c828492db98dca3e2076cc3735a920a3ca505d382bbc80546001600160a01b0319166001600160a01b0392909216919091179055565b6060823b6115f95760405162461bcd60e51b815260206004820152602660248201527f416464726573733a2064656c65676174652063616c6c20746f206e6f6e2d636f6044820152651b9d1c9858dd60d21b60648201526084016103b8565b600080846001600160a01b0316846040516116149190611f72565b600060405180830381855af49150503d806000811461164f576040519150601f19603f3d011682016040523d82523d6000602084013e611654565b606091505b509150915061167c82826040518060600160405280602781526020016123a260279139611803565b95945050505050565b61168e816114f5565b6040516001600160a01b038216907fbc7cd75a20ee27fd9adebab32041f755214dbc6bffa90cc0225b39da2e5c2d3b90600090a250565b60c9546000906001600160a01b03163314156116e8575060131936013560601c90565b503390565b6000808251604114156117245760208301516040840151606085015160001a6117188782858561183c565b94509450505050611756565b82516040141561174e5760208301516040840151611743868383611929565b935093505050611756565b506000905060025b9250929050565b600054610100900460ff166117845760405162461bcd60e51b81526004016103b89061215f565b61178c611958565b610896611958565b600054610100900460ff166117bb5760405162461bcd60e51b81526004016103b89061215f565b6117c3611958565b6104a58161197f565b600054610100900460ff166117f35760405162461bcd60e51b81526004016103b89061215f565b6108966117fe611224565b611233565b6060831561181257508161145d565b8251156118225782518084602001fd5b8160405162461bcd60e51b81526004016103b89190612031565b6000807f7fffffffffffffffffffffffffffffff5d576e7357a4501ddfe92f46681b20a08311156118735750600090506003611920565b8460ff16601b1415801561188b57508460ff16601c14155b1561189c5750600090506004611920565b6040805160008082526020820180845289905260ff881692820192909252606081018690526080810185905260019060a0016020604051602081039080840390855afa1580156118f0573d6000803e3d6000fd5b5050604051601f1901519150506001600160a01b03811661191957600060019250925050611920565b9150600090505b94509492505050565b6000806001600160ff1b03831660ff84901c601b0161194a8782888561183c565b935093505050935093915050565b600054610100900460ff166108965760405162461bcd60e51b81526004016103b89061215f565b600054610100900460ff166119a65760405162461bcd60e51b81526004016103b89061215f565b60c980546001600160a01b0319166001600160a01b0392909216919091179055565b82805482825590600052602060002090601f01602090048101928215611a615791602002820160005b83821115611a3257833560ff1683826101000a81548160ff021916908360ff16021790555092602001926001016020816000010492830192600103026119f1565b8015611a5f5782816101000a81549060ff0219169055600101602081600001049283019260010302611a32565b505b50611a6d929150611ac4565b5090565b828054828255906000526020600020908101928215611a61579160200282015b82811115611a615781546001600160a81b0319166001600160a81b03843516178255602090920191600190910190611a91565b5b80821115611a6d5760008155600101611ac5565b80356001600160a01b0381168114611af057600080fd5b919050565b60008083601f840112611b06578081fd5b50813567ffffffffffffffff811115611b1d578182fd5b6020830191508360208260051b850101111561175657600080fd5b60008083601f840112611b49578182fd5b50813567ffffffffffffffff811115611b60578182fd5b60208301915083602082850101111561175657600080fd5b80356001600160a81b0381168114611af057600080fd5b803563ffffffff81168114611af057600080fd5b803560ff81168114611af057600080fd5b600060208284031215611bc5578081fd5b61145d82611ad9565b60008060408385031215611be0578081fd5b611be983611ad9565b9150602083013567ffffffffffffffff80821115611c05578283fd5b818501915085601f830112611c18578283fd5b813581811115611c2a57611c2a61238b565b604051601f8201601f19908116603f01168101908382118183101715611c5257611c5261238b565b81604052828152886020848701011115611c6a578586fd5b82602086016020830137856020848301015280955050505050509250929050565b60008060408385031215611c9d578182fd5b611ca683611ad9565b9150611cb460208401611ba3565b90509250929050565b600060208284031215611cce578081fd5b5035919050565b60008060008060608587031215611cea578182fd5b8435935060208501359250604085013567ffffffffffffffff811115611d0e578283fd5b611d1a87828801611b38565b95989497509550505050565b600060208284031215611d37578081fd5b81516001600160e01b03198116811461145d578182fd5b60008060008060008060008060008060008060e08d8f031215611d6f578788fd5b67ffffffffffffffff8d351115611d84578788fd5b611d918e8e358f01611b38565b909c509a50611da260208e01611b8f565b995060408d0135985067ffffffffffffffff60608e01351115611dc3578788fd5b611dd38e60608f01358f01611af5565b909850965067ffffffffffffffff60808e01351115611df0578586fd5b611e008e60808f01358f01611af5565b909650945067ffffffffffffffff60a08e01351115611e1d578384fd5b611e2d8e60a08f01358f01611af5565b909450925067ffffffffffffffff60c08e01351115611e4a578081fd5b611e5a8e60c08f01358f01611af5565b81935080925050509295989b509295989b509295989b565b600060208284031215611e83578081fd5b61145d82611b78565b60008060408385031215611e9e578182fd5b82359150611cb460208401611ad9565b600060208284031215611ebf578081fd5b61145d82611ba3565b81835260006020808501945082825b85811015611f03576001600160a01b03611ef083611ad9565b1687529582019590820190600101611ed7565b509495945050505050565b6000815180845260208085019450808401835b83811015611f035781516001600160a81b031687529582019590820190600101611f21565b60008151808452611f5e81602086016020860161232a565b601f01601f19169290920160200192915050565b60008251611f8481846020870161232a565b9190910192915050565b858152606060208201526000611fa8606083018688611ec8565b8281036040840152611fbb818587611ec8565b98975050505050505050565b828152604060208201526000611fe06040830184611f46565b949350505050565b848152606060208201528260608201528284608083013760008184016080908101919091526001600160a01b03929092166040820152601f909201601f19169091010192915050565b60208152600061145d6020830184611f46565b6020808252602c908201527f46756e6374696f6e206d7573742062652063616c6c6564207468726f7567682060408201526b19195b1959d85d1958d85b1b60a21b606082015260800190565b6020808252602c908201527f46756e6374696f6e206d7573742062652063616c6c6564207468726f7567682060408201526b6163746976652070726f787960a01b606082015260800190565b6020808252602e908201527f496e697469616c697a61626c653a20636f6e747261637420697320616c72656160408201526d191e481a5b9a5d1a585b1a5e995960921b606082015260800190565b6020808252818101527f4f776e61626c653a2063616c6c6572206973206e6f7420746865206f776e6572604082015260600190565b6020808252602b908201527f496e697469616c697a61626c653a20636f6e7472616374206973206e6f74206960408201526a6e697469616c697a696e6760a81b606082015260800190565b6000602080835260a0830163ffffffff8551168285015281850151604085015260408501516080606086015281815180845260c08701915084830193508592505b8083101561220e57835160ff1682529284019260019290920191908401906121eb565b506060870151868203601f19016080880152935061222c8185611f0e565b979650505050505050565b600060808201888352602063ffffffff891681850152608060408501528187835260a085019050889250835b888110156122895760ff61227685611ba3565b1682529282019290820190600101612263565b5084810360608601528581528101915085835b868110156122c8576001600160a81b036122b583611b78565b168452928201929082019060010161229c565b50919a9950505050505050505050565b600082198211156122eb576122eb612375565b500190565b60008282101561230257612302612375565b500390565b600060ff821660ff84168082101561232157612321612375565b90039392505050565b60005b8381101561234557818101518382015260200161232d565b83811115612354576000848401525b50505050565b600060001982141561236e5761236e612375565b5060010190565b634e487b7160e01b600052601160045260246000fd5b634e487b7160e01b600052604160045260246000fdfe416464726573733a206c6f772d6c6576656c2064656c65676174652063616c6c206661696c6564a2646970667358221220cf200f45a9ea25a133d6e779230235ac9030495eaa5386ce27df472b65a0060f64736f6c63430008040033",
  "linkReferences": {},
  "deployedLinkReferences": {}
}