{
  "_format": "hh-sol-artifact-1",
  "contractName": "EthSignV4",
  "sourceName": "contracts/EthSignV4.sol",
  "abi": [
    {
      "anonymous": false,
      "inputs": [
        {
          "indexed": false,
          "internalType": "address",
          "name": "previousAdmin",
          "type": "address"
        },
        {
          "indexed": false,
          "internalType": "address",
          "name": "newAdmin",
          "type": "address"
        }
      ],
      "name": "AdminChanged",
      "type": "event"
    },
    {
      "anonymous": false,
      "inputs": [
        {
          "indexed": true,
          "internalType": "address",
          "name": "beacon",
          "type": "address"
        }
      ],
      "name": "BeaconUpgraded",
      "type": "event"
    },
    {
      "anonymous": false,
      "inputs": [
        {
          "indexed": false,
          "internalType": "bytes32",
          "name": "contractId",
          "type": "bytes32"
        },
        {
          "indexed": false,
          "internalType": "string",
          "name": "name",
          "type": "string"
        },
        {
          "indexed": false,
          "internalType": "address",
          "name": "initiator",
          "type": "address"
        },
        {
          "indexed": false,
          "internalType": "uint8",
          "name": "metadata",
          "type": "uint8"
        }
      ],
      "name": "ContractCreated",
      "type": "event"
    },
    {
      "anonymous": false,
      "inputs": [
        {
          "indexed": false,
          "internalType": "bytes32",
          "name": "contractId",
          "type": "bytes32"
        },
        {
          "indexed": false,
          "internalType": "address",
          "name": "party",
          "type": "address"
        }
      ],
      "name": "ContractHidden",
      "type": "event"
    },
    {
      "anonymous": false,
      "inputs": [
        {
          "indexed": false,
          "internalType": "bytes32",
          "name": "contractId",
          "type": "bytes32"
        }
      ],
      "name": "ContractSigningCompleted",
      "type": "event"
    },
    {
      "anonymous": false,
      "inputs": [
        {
          "indexed": true,
          "internalType": "address",
          "name": "previousOwner",
          "type": "address"
        },
        {
          "indexed": true,
          "internalType": "address",
          "name": "newOwner",
          "type": "address"
        }
      ],
      "name": "OwnershipTransferred",
      "type": "event"
    },
    {
      "anonymous": false,
      "inputs": [
        {
          "indexed": false,
          "internalType": "bytes32",
          "name": "contractId",
          "type": "bytes32"
        },
        {
          "indexed": false,
          "internalType": "uint168[]",
          "name": "signersData",
          "type": "uint168[]"
        },
        {
          "indexed": false,
          "internalType": "address[]",
          "name": "viewers",
          "type": "address[]"
        }
      ],
      "name": "RecipientsAdded",
      "type": "event"
    },
    {
      "anonymous": false,
      "inputs": [
        {
          "indexed": false,
          "internalType": "bytes32",
          "name": "contractId",
          "type": "bytes32"
        },
        {
          "indexed": false,
          "internalType": "address",
          "name": "signer",
          "type": "address"
        },
        {
          "indexed": false,
          "internalType": "string",
          "name": "rawSignatureDataHash",
          "type": "string"
        }
      ],
      "name": "SignerSigned",
      "type": "event"
    },
    {
      "anonymous": false,
      "inputs": [
        {
          "indexed": true,
          "internalType": "address",
          "name": "implementation",
          "type": "address"
        }
      ],
      "name": "Upgraded",
      "type": "event"
    },
    {
      "inputs": [],
      "name": "STATUS_BITMASK",
      "outputs": [
        {
          "internalType": "uint8",
          "name": "",
          "type": "uint8"
        }
      ],
      "stateMutability": "view",
      "type": "function"
    },
    {
      "inputs": [],
      "name": "STEP_BITMASK",
      "outputs": [
        {
          "internalType": "uint8",
          "name": "",
          "type": "uint8"
        }
      ],
      "stateMutability": "view",
      "type": "function"
    },
    {
      "inputs": [],
      "name": "chainId",
      "outputs": [
        {
          "internalType": "uint256",
          "name": "",
          "type": "uint256"
        }
      ],
      "stateMutability": "view",
      "type": "function"
    },
    {
      "inputs": [
        {
          "internalType": "string",
          "name": "name",
          "type": "string"
        },
        {
          "internalType": "uint32",
          "name": "expiry_",
          "type": "uint32"
        },
        {
          "internalType": "string",
          "name": "rawDataHash_",
          "type": "string"
        },
        {
          "internalType": "uint8[]",
          "name": "signersPerStep",
          "type": "uint8[]"
        },
        {
          "internalType": "uint168[]",
          "name": "signersData",
          "type": "uint168[]"
        },
        {
          "internalType": "address[]",
          "name": "viewers",
          "type": "address[]"
        },
        {
          "internalType": "uint8",
          "name": "metadata",
          "type": "uint8"
        }
      ],
      "name": "create",
      "outputs": [
        {
          "internalType": "bytes32",
          "name": "contractId",
          "type": "bytes32"
        }
      ],
      "stateMutability": "nonpayable",
      "type": "function"
    },
    {
      "inputs": [
        {
          "internalType": "uint168",
          "name": "signerData",
          "type": "uint168"
        }
      ],
      "name": "decodeSignerData",
      "outputs": [
        {
          "internalType": "address",
          "name": "signer",
          "type": "address"
        },
        {
          "internalType": "uint8",
          "name": "step",
          "type": "uint8"
        },
        {
          "internalType": "uint8",
          "name": "hasSigned",
          "type": "uint8"
        }
      ],
      "stateMutability": "pure",
      "type": "function"
    },
    {
      "inputs": [
        {
          "internalType": "address",
          "name": "signer",
          "type": "address"
        },
        {
          "internalType": "uint8",
          "name": "step",
          "type": "uint8"
        }
      ],
      "name": "encodeSignerData",
      "outputs": [
        {
          "internalType": "uint168",
          "name": "encodedSignerData",
          "type": "uint168"
        }
      ],
      "stateMutability": "pure",
      "type": "function"
    },
    {
      "inputs": [
        {
          "internalType": "bytes32",
          "name": "contractId",
          "type": "bytes32"
        }
      ],
      "name": "getContract",
      "outputs": [
        {
          "components": [
            {
              "internalType": "uint32",
              "name": "expiry",
              "type": "uint32"
            },
            {
              "internalType": "string",
              "name": "rawDataHash",
              "type": "string"
            },
            {
              "internalType": "uint8[]",
              "name": "signersLeftPerStep",
              "type": "uint8[]"
            },
            {
              "internalType": "uint168[]",
              "name": "packedSignersAndStatus",
              "type": "uint168[]"
            }
          ],
          "internalType": "struct EthSignV4.Contract",
          "name": "",
          "type": "tuple"
        }
      ],
      "stateMutability": "view",
      "type": "function"
    },
    {
      "inputs": [
        {
          "internalType": "bytes32",
          "name": "contractId",
          "type": "bytes32"
        }
      ],
      "name": "hide",
      "outputs": [],
      "stateMutability": "nonpayable",
      "type": "function"
    },
    {
      "inputs": [
        {
          "internalType": "uint256",
          "name": "chainId_",
          "type": "uint256"
        },
        {
          "internalType": "address",
          "name": "forwarder",
          "type": "address"
        }
      ],
      "name": "initialize",
      "outputs": [],
      "stateMutability": "nonpayable",
      "type": "function"
    },
    {
      "inputs": [
        {
          "internalType": "address",
          "name": "forwarder",
          "type": "address"
        }
      ],
      "name": "isTrustedForwarder",
      "outputs": [
        {
          "internalType": "bool",
          "name": "",
          "type": "bool"
        }
      ],
      "stateMutability": "view",
      "type": "function"
    },
    {
      "inputs": [],
      "name": "owner",
      "outputs": [
        {
          "internalType": "address",
          "name": "",
          "type": "address"
        }
      ],
      "stateMutability": "view",
      "type": "function"
    },
    {
      "inputs": [],
      "name": "renounceOwnership",
      "outputs": [],
      "stateMutability": "nonpayable",
      "type": "function"
    },
    {
      "inputs": [
        {
          "internalType": "bytes32",
          "name": "contractId",
          "type": "bytes32"
        },
        {
          "internalType": "uint256",
          "name": "index",
          "type": "uint256"
        },
        {
          "internalType": "bytes",
          "name": "signature",
          "type": "bytes"
        },
        {
          "internalType": "string",
          "name": "rawSignatureDataHash",
          "type": "string"
        }
      ],
      "name": "sign",
      "outputs": [],
      "stateMutability": "nonpayable",
      "type": "function"
    },
    {
      "inputs": [
        {
          "internalType": "address",
          "name": "newOwner",
          "type": "address"
        }
      ],
      "name": "transferOwnership",
      "outputs": [],
      "stateMutability": "nonpayable",
      "type": "function"
    },
    {
      "inputs": [],
      "name": "trustedForwarder",
      "outputs": [
        {
          "internalType": "address",
          "name": "",
          "type": "address"
        }
      ],
      "stateMutability": "view",
      "type": "function"
    },
    {
      "inputs": [
        {
          "internalType": "address",
          "name": "newImplementation",
          "type": "address"
        }
      ],
      "name": "upgradeTo",
      "outputs": [],
      "stateMutability": "nonpayable",
      "type": "function"
    },
    {
      "inputs": [
        {
          "internalType": "address",
          "name": "newImplementation",
          "type": "address"
        },
        {
          "internalType": "bytes",
          "name": "data",
          "type": "bytes"
        }
      ],
      "name": "upgradeToAndCall",
      "outputs": [],
      "stateMutability": "payable",
      "type": "function"
    }
  ],
  "bytecode": "0x60a06040523060805234801561001457600080fd5b506080516125e26100456000396000818161042301528181610463015281816104ec015261052c01526125e26000f3fe6080604052600436106100fe5760003560e01c806393f2e69e11610095578063ac39154c11610064578063ac39154c146102ff578063c7293ad51461031f578063da35a26f1461033f578063e16c7d981461035f578063f2fde38b1461038c57600080fd5b806393f2e69e1461023f5780639a8a05921461029f578063aa3c029e146102c3578063ab7a0c4b146102ea57600080fd5b80635ed78ed6116100d15780635ed78ed6146101b4578063715018a6146101d45780637da0a877146101e95780638da5cb5b1461022157600080fd5b806328ea3a5a146101035780633659cfe6146101405780634f1ef28614610162578063572b6c0514610175575b600080fd5b34801561010f57600080fd5b5061012361011e366004611c04565b6103ac565b6040516001600160a81b0390911681526020015b60405180910390f35b34801561014c57600080fd5b5061016061015b366004611c37565b610418565b005b610160610170366004611c68565b6104e1565b34801561018157600080fd5b506101a4610190366004611c37565b60c9546001600160a01b0391821691161490565b6040519015158152602001610137565b3480156101c057600080fd5b506101606101cf366004611d2a565b61059b565b3480156101e057600080fd5b506101606105e8565b3480156101f557600080fd5b5060c954610209906001600160a01b031681565b6040516001600160a01b039091168152602001610137565b34801561022d57600080fd5b506033546001600160a01b0316610209565b34801561024b57600080fd5b5061027661025a366004611d5a565b600881901c6001600160a01b031691600182811c607f16921690565b604080516001600160a01b03909416845260ff9283166020850152911690820152606001610137565b3480156102ab57600080fd5b506102b560fb5481565b604051908152602001610137565b3480156102cf57600080fd5b506102d8600181565b60405160ff9091168152602001610137565b3480156102f657600080fd5b506102d860fe81565b34801561030b57600080fd5b5061016061031a366004611db7565b61063d565b34801561032b57600080fd5b506102b561033a366004611e93565b610b6c565b34801561034b57600080fd5b5061016061035a366004611fc1565b610d2a565b34801561036b57600080fd5b5061037f61037a366004611d2a565b610e75565b6040516101379190612084565b34801561039857600080fd5b506101606103a7366004611c37565b611040565b600060fe60ff8316106103fa5760405162461bcd60e51b815260206004820152601160248201527053746570206f7574206f662072616e676560781b60448201526064015b60405180910390fd5b5060089190911b610100600160a81b031660019190911b60fe161790565b306001600160a01b037f00000000000000000000000000000000000000000000000000000000000000001614156104615760405162461bcd60e51b81526004016103f190612114565b7f00000000000000000000000000000000000000000000000000000000000000006001600160a01b03166104936110f7565b6001600160a01b0316146104b95760405162461bcd60e51b81526004016103f190612160565b6104c281611125565b604080516000808252602082019092526104de9183919061116e565b50565b306001600160a01b037f000000000000000000000000000000000000000000000000000000000000000016141561052a5760405162461bcd60e51b81526004016103f190612114565b7f00000000000000000000000000000000000000000000000000000000000000006001600160a01b031661055c6110f7565b6001600160a01b0316146105825760405162461bcd60e51b81526004016103f190612160565b61058b82611125565b6105978282600161116e565b5050565b7fc6c7eac6763ecb85001e3129c36ca4c97e0c311a3927794f3ef8a81ce7471542816105c56112b9565b604080519283526001600160a01b0390911660208301520160405180910390a150565b6105f06112b9565b6001600160a01b031661060b6033546001600160a01b031690565b6001600160a01b0316146106315760405162461bcd60e51b81526004016103f1906121ac565b61063b60006112c8565b565b600086815260fd602052604090206107a56106566112b9565b61076960fc546107298b86600101805461066f906121e1565b80601f016020809104026020016040519081016040528092919081815260200182805461069b906121e1565b80156106e85780601f106106bd576101008083540402835291602001916106e8565b820191906000526020600020905b8154815290600101906020018083116106cb57829003601f168201915b505050505089898080601f01602080910402602001604051908101604052809392919081815260200183838082843760009201919091525061131a92505050565b60405161190160f01b6020820152602281018390526042810182905260009060620160405160208183030381529060405280519060200120905092915050565b87878080601f01602080910402602001604051908101604052809392919081815260200183838082843760009201919091525061139792505050565b6107e55760405162461bcd60e51b8152602060048201526011602482015270496e76616c6964207369676e617475726560781b60448201526064016103f1565b6000600160fe60ff168360030189815481106108035761080361221c565b600091825260209091200154166001600160a81b0390811690911c1690506108296112b9565b6001600160a01b031660088360030189815481106108495761084961221c565b6000918252602090912001546001600160a81b0316901c6001600160a01b0316146108a85760405162461bcd60e51b815260206004820152600f60248201526e0a6d2cedccae440dad2e6dac2e8c6d608b1b60448201526064016103f1565b600160ff168260030188815481106108c2576108c261221c565b600091825260209091200154166001600160a81b0316156109165760405162461bcd60e51b815260206004820152600e60248201526d105b1c9958591e481cda59db995960921b60448201526064016103f1565b80158061095f57506002820161092d600183612248565b8154811061093d5761093d61221c565b60009182526020918290209181049091015460ff601f9092166101000a900416155b61099b5760405162461bcd60e51b815260206004820152600d60248201526c2737ba103cb7bab9103a3ab93760991b60448201526064016103f1565b815463ffffffff1615806109b7575081544263ffffffff909116115b6109ed5760405162461bcd60e51b8152602060048201526007602482015266115e1c1a5c995960ca1b60448201526064016103f1565b6001826003018881548110610a0457610a0461221c565b600091825260209091200180546001600160a81b03928316928116929092176001600160a81b03199092169190911790556002820180546001919083908110610a4f57610a4f61221c565b90600052602060002090602091828204019190068282829054906101000a900460ff16610a7c919061225f565b92506101000a81548160ff021916908360ff1602179055507f58fd34ba89213374587ca2e6987d3e5bdd15ae53e6fb05e2549d91fc06a2b30f88610abe6112b9565b8686604051610ad094939291906122ab565b60405180910390a1816002018181548110610aed57610aed61221c565b60009182526020918290209181049091015460ff601f9092166101000a900416158015610b2957506002820154610b2690600190612248565b81145b15610b62576040518881527f7ecc47f426e9eeb810dc377afa3170124218b73b4b79a50aba48e7b0c97a613b9060200160405180910390a15b5050505050505050565b600060fb548d8d8d8d8d8d8d8d8d604051602001610b939a9998979695949392919061231c565b60408051601f198184030181529181528151602092830120600081815260fd909352912060038101549192509015610bff5760405162461bcd60e51b815260206004820152600f60248201526e436f6e74726163742065786973747360881b60448201526064016103f1565b428c63ffffffff161180610c17575063ffffffff8c16155b610c545760405162461bcd60e51b815260206004820152600e60248201526d496e76616c69642065787069727960901b60448201526064016103f1565b7f0694b3d12484fb57047a6df45b633dd13fbe1274118bbe1fb464e5ab4aa4b347828f8f610c806112b9565b87604051610c929594939291906123b6565b60405180910390a17f20f95a58eae54b340545ff41c31e100431d1a8f09f8f90106a93a7c2edcf69ff8288888888604051610cd19594939291906123f5565b60405180910390a1805463ffffffff191663ffffffff8d16178155610cfa600182018c8c611a47565b50610d09600282018a8a611acb565b50610d18600382018888611b6f565b50509c9b505050505050505050505050565b600054610100900460ff16610d455760005460ff1615610d49565b303b155b610d655760405162461bcd60e51b81526004016103f19061245c565b600054610100900460ff16158015610d87576000805461ffff19166101011790555b610d9183836114e3565b60fb54604080517fd87cd6ef79d4e2b95e15ce8abf732db51ec771f1ca2edccf22a46c729ac5647260208201527f60570743c3aa81622759289f024257add09e8c4aa0cf1732651de4dd5231d716918101919091527f13600b294191fc92924bb3ce4b969c1e7e2bab8f4c93c3fc6d0a51733df3c060606082015260808101919091523060a08201527fad27b301e5f37100ff157cc76d31929cff6e67812684f9f8bc3d7f70865dd81060c082015260e00160408051601f19818403018152919052805160209091012060fc558015610e70576000805461ff00191690555b505050565b610ea66040518060800160405280600063ffffffff1681526020016060815260200160608152602001606081525090565b600082815260fd6020908152604091829020825160808101909352805463ffffffff1683526001810180549192840191610edf906121e1565b80601f0160208091040260200160405190810160405280929190818152602001828054610f0b906121e1565b8015610f585780601f10610f2d57610100808354040283529160200191610f58565b820191906000526020600020905b815481529060010190602001808311610f3b57829003601f168201915b5050505050815260200160028201805480602002602001604051908101604052809291908181526020018280548015610fce57602002820191906000526020600020906000905b825461010083900a900460ff16815260206001928301818104948501949093039092029101808411610f9f5790505b505050505081526020016003820180548060200260200160405190810160405280929190818152602001828054801561103057602002820191906000526020600020905b81546001600160a81b03168152600190910190602001808311611012575b5050505050815250509050919050565b6110486112b9565b6001600160a01b03166110636033546001600160a01b031690565b6001600160a01b0316146110895760405162461bcd60e51b81526004016103f1906121ac565b6001600160a01b0381166110ee5760405162461bcd60e51b815260206004820152602660248201527f4f776e61626c653a206e6577206f776e657220697320746865207a65726f206160448201526564647265737360d01b60648201526084016103f1565b6104de816112c8565b7f360894a13ba1a3210667c828492db98dca3e2076cc3735a920a3ca505d382bbc546001600160a01b031690565b61112d6112b9565b6001600160a01b03166111486033546001600160a01b031690565b6001600160a01b0316146104de5760405162461bcd60e51b81526004016103f1906121ac565b60006111786110f7565b905061118384611574565b6000835111806111905750815b156111a15761119f8484611619565b505b7f4910fdfa16fed3260ed0e7147f7cc6da11a60208b5b9406d12a635614ffd9143805460ff166112b257805460ff191660011781556040516001600160a01b038316602482015261122090869060440160408051601f198184030181529190526020810180516001600160e01b0316631b2ce7f360e11b179052611619565b50805460ff191681556112316110f7565b6001600160a01b0316826001600160a01b0316146112a95760405162461bcd60e51b815260206004820152602f60248201527f45524331393637557067726164653a207570677261646520627265616b73206660448201526e75727468657220757067726164657360881b60648201526084016103f1565b6112b285611704565b5050505050565b60006112c3611744565b905090565b603380546001600160a01b038381166001600160a01b0319831681179093556040519116919082907f8be0079c531659141344cd1fd0a4f28419497f9722a3daafe3b4186f6b6457e090600090a35050565b60007fa61a64e34177d5273b5985fa9eb19616965033f6593a2d0c2f7d77d03b4b6dae8484805190602001208480519060200120604051602001611377949392919093845260208401929092526040830152606082015260800190565b6040516020818303038152906040528051906020012090505b9392505050565b60008060006113a6858561176c565b909250905060008160048111156113bf576113bf6124aa565b1480156113dd5750856001600160a01b0316826001600160a01b0316145b156113ed57600192505050611390565b600080876001600160a01b0316631626ba7e60e01b88886040516024016114159291906124c0565b60408051601f198184030181529181526020820180516001600160e01b03166001600160e01b031990941693909317909252905161145391906124e1565b600060405180830381855afa9150503d806000811461148e576040519150601f19603f3d011682016040523d82523d6000602084013e611493565b606091505b50915091508180156114a6575080516020145b80156114d757508051630b135d3f60e11b906114cb90830160209081019084016124fd565b6001600160e01b031916145b98975050505050505050565b600054610100900460ff166114fe5760005460ff1615611502565b303b155b61151e5760405162461bcd60e51b81526004016103f19061245c565b600054610100900460ff16158015611540576000805461ffff19166101011790555b60fb83905561154d6117dc565b61155682611813565b61155e61184b565b8015610e70576000805461ff0019169055505050565b803b6115d85760405162461bcd60e51b815260206004820152602d60248201527f455243313936373a206e657720696d706c656d656e746174696f6e206973206e60448201526c1bdd08184818dbdb9d1c9858dd609a1b60648201526084016103f1565b7f360894a13ba1a3210667c828492db98dca3e2076cc3735a920a3ca505d382bbc80546001600160a01b0319166001600160a01b0392909216919091179055565b6060823b6116785760405162461bcd60e51b815260206004820152602660248201527f416464726573733a2064656c65676174652063616c6c20746f206e6f6e2d636f6044820152651b9d1c9858dd60d21b60648201526084016103f1565b600080846001600160a01b03168460405161169391906124e1565b600060405180830381855af49150503d80600081146116ce576040519150601f19603f3d011682016040523d82523d6000602084013e6116d3565b606091505b50915091506116fb828260405180606001604052806027815260200161258660279139611882565b95945050505050565b61170d81611574565b6040516001600160a01b038216907fbc7cd75a20ee27fd9adebab32041f755214dbc6bffa90cc0225b39da2e5c2d3b90600090a250565b60c9546000906001600160a01b0316331415611767575060131936013560601c90565b503390565b6000808251604114156117a35760208301516040840151606085015160001a611797878285856118bb565b945094505050506117d5565b8251604014156117cd57602083015160408401516117c28683836119a8565b9350935050506117d5565b506000905060025b9250929050565b600054610100900460ff166118035760405162461bcd60e51b81526004016103f190612527565b61180b6119d7565b61063b6119d7565b600054610100900460ff1661183a5760405162461bcd60e51b81526004016103f190612527565b6118426119d7565b6104de816119fe565b600054610100900460ff166118725760405162461bcd60e51b81526004016103f190612527565b61063b61187d6112b9565b6112c8565b60608315611891575081611390565b8251156118a15782518084602001fd5b8160405162461bcd60e51b81526004016103f19190612572565b6000807f7fffffffffffffffffffffffffffffff5d576e7357a4501ddfe92f46681b20a08311156118f2575060009050600361199f565b8460ff16601b1415801561190a57508460ff16601c14155b1561191b575060009050600461199f565b6040805160008082526020820180845289905260ff881692820192909252606081018690526080810185905260019060a0016020604051602081039080840390855afa15801561196f573d6000803e3d6000fd5b5050604051601f1901519150506001600160a01b0381166119985760006001925092505061199f565b9150600090505b94509492505050565b6000806001600160ff1b03831660ff84901c601b016119c9878288856118bb565b935093505050935093915050565b600054610100900460ff1661063b5760405162461bcd60e51b81526004016103f190612527565b600054610100900460ff16611a255760405162461bcd60e51b81526004016103f190612527565b60c980546001600160a01b0319166001600160a01b0392909216919091179055565b828054611a53906121e1565b90600052602060002090601f016020900481019282611a755760008555611abb565b82601f10611a8e5782800160ff19823516178555611abb565b82800160010185558215611abb579182015b82811115611abb578235825591602001919060010190611aa0565b50611ac7929150611bc2565b5090565b82805482825590600052602060002090601f01602090048101928215611abb5791602002820160005b83821115611b3557833560ff1683826101000a81548160ff021916908360ff1602179055509260200192600101602081600001049283019260010302611af4565b8015611b625782816101000a81549060ff0219169055600101602081600001049283019260010302611b35565b5050611ac7929150611bc2565b828054828255906000526020600020908101928215611abb579160200282015b82811115611abb5781546001600160a81b0319166001600160a81b03843516178255602090920191600190910190611b8f565b5b80821115611ac75760008155600101611bc3565b80356001600160a01b0381168114611bee57600080fd5b919050565b803560ff81168114611bee57600080fd5b60008060408385031215611c1757600080fd5b611c2083611bd7565b9150611c2e60208401611bf3565b90509250929050565b600060208284031215611c4957600080fd5b61139082611bd7565b634e487b7160e01b600052604160045260246000fd5b60008060408385031215611c7b57600080fd5b611c8483611bd7565b9150602083013567ffffffffffffffff80821115611ca157600080fd5b818501915085601f830112611cb557600080fd5b813581811115611cc757611cc7611c52565b604051601f8201601f19908116603f01168101908382118183101715611cef57611cef611c52565b81604052828152886020848701011115611d0857600080fd5b8260208601602083013760006020848301015280955050505050509250929050565b600060208284031215611d3c57600080fd5b5035919050565b80356001600160a81b0381168114611bee57600080fd5b600060208284031215611d6c57600080fd5b61139082611d43565b60008083601f840112611d8757600080fd5b50813567ffffffffffffffff811115611d9f57600080fd5b6020830191508360208285010111156117d557600080fd5b60008060008060008060808789031215611dd057600080fd5b8635955060208701359450604087013567ffffffffffffffff80821115611df657600080fd5b611e028a838b01611d75565b90965094506060890135915080821115611e1b57600080fd5b50611e2889828a01611d75565b979a9699509497509295939492505050565b803563ffffffff81168114611bee57600080fd5b60008083601f840112611e6057600080fd5b50813567ffffffffffffffff811115611e7857600080fd5b6020830191508360208260051b85010111156117d557600080fd5b60008060008060008060008060008060008060e08d8f031215611eb557600080fd5b67ffffffffffffffff8d351115611ecb57600080fd5b611ed88e8e358f01611d75565b909c509a50611ee960208e01611e3a565b995067ffffffffffffffff60408e01351115611f0457600080fd5b611f148e60408f01358f01611d75565b909950975067ffffffffffffffff60608e01351115611f3257600080fd5b611f428e60608f01358f01611e4e565b909750955067ffffffffffffffff60808e01351115611f6057600080fd5b611f708e60808f01358f01611e4e565b909550935067ffffffffffffffff60a08e01351115611f8e57600080fd5b611f9e8e60a08f01358f01611e4e565b9093509150611faf60c08e01611bf3565b90509295989b509295989b509295989b565b60008060408385031215611fd457600080fd5b82359150611c2e60208401611bd7565b60005b83811015611fff578181015183820152602001611fe7565b8381111561200e576000848401525b50505050565b6000815180845261202c816020860160208601611fe4565b601f01601f19169290920160200192915050565b600081518084526020808501945080840160005b838110156120795781516001600160a81b031687529582019590820190600101612054565b509495945050505050565b6000602080835263ffffffff8451168184015280840151608060408501526120af60a0850182612014565b6040860151601f1986830381016060880152815180845291850193506000929091908501905b808410156120f857845160ff1682529385019360019390930192908501906120d5565b5060608801519450818782030160808801526114d78186612040565b6020808252602c908201527f46756e6374696f6e206d7573742062652063616c6c6564207468726f7567682060408201526b19195b1959d85d1958d85b1b60a21b606082015260800190565b6020808252602c908201527f46756e6374696f6e206d7573742062652063616c6c6564207468726f7567682060408201526b6163746976652070726f787960a01b606082015260800190565b6020808252818101527f4f776e61626c653a2063616c6c6572206973206e6f7420746865206f776e6572604082015260600190565b600181811c908216806121f557607f821691505b6020821081141561221657634e487b7160e01b600052602260045260246000fd5b50919050565b634e487b7160e01b600052603260045260246000fd5b634e487b7160e01b600052601160045260246000fd5b60008282101561225a5761225a612232565b500390565b600060ff821660ff84168082101561227957612279612232565b90039392505050565b81835281816020850137506000828201602090810191909152601f909101601f19169091010190565b8481526001600160a01b03841660208201526060604082018190526000906122d69083018486612282565b9695505050505050565b8183526000602080850194508260005b85811015612079576001600160a81b0361230983611d43565b16875295820195908201906001016122f0565b8a81526000602060c08184015261233760c084018c8e612282565b63ffffffff8b1660408501528381036060850152612356818a8c612282565b8481036080860152878152889150820160005b8881101561238f5760ff61237c84611bf3565b1682529183019190830190600101612369565b5084810360a08601526123a38187896122e0565b9f9e505050505050505050505050505050565b8581526080602082015260006123d0608083018688612282565b6001600160a01b039490941660408301525060ff919091166060909101529392505050565b858152600060206060818401526124106060840187896122e0565b83810360408501528481528590820160005b8681101561244e576001600160a01b0361243b84611bd7565b1682529183019190830190600101612422565b509998505050505050505050565b6020808252602e908201527f496e697469616c697a61626c653a20636f6e747261637420697320616c72656160408201526d191e481a5b9a5d1a585b1a5e995960921b606082015260800190565b634e487b7160e01b600052602160045260246000fd5b8281526040602082015260006124d96040830184612014565b949350505050565b600082516124f3818460208701611fe4565b9190910192915050565b60006020828403121561250f57600080fd5b81516001600160e01b03198116811461139057600080fd5b6020808252602b908201527f496e697469616c697a61626c653a20636f6e7472616374206973206e6f74206960408201526a6e697469616c697a696e6760a81b606082015260800190565b602081526000611390602083018461201456fe416464726573733a206c6f772d6c6576656c2064656c65676174652063616c6c206661696c6564a26469706673582212200fc3ef1d85ddf4d778e3f64c7e179976cf27f23e99e9baa2d93417097cc503b764736f6c634300080c0033",
  "linkReferences": {},
  "deployedLinkReferences": {}
}