{
  "_format": "hh-sol-artifact-1",
  "contractName": "EthSignV4",
  "sourceName": "contracts/EthSignV4.sol",
  "abi": [
    {
      "anonymous": false,
      "inputs": [
        {
          "indexed": false,
          "internalType": "address",
          "name": "previousAdmin",
          "type": "address"
        },
        {
          "indexed": false,
          "internalType": "address",
          "name": "newAdmin",
          "type": "address"
        }
      ],
      "name": "AdminChanged",
      "type": "event"
    },
    {
      "anonymous": false,
      "inputs": [
        {
          "indexed": true,
          "internalType": "address",
          "name": "beacon",
          "type": "address"
        }
      ],
      "name": "BeaconUpgraded",
      "type": "event"
    },
    {
      "anonymous": false,
      "inputs": [
        {
          "indexed": false,
          "internalType": "bytes32",
          "name": "contractId",
          "type": "bytes32"
        },
        {
          "indexed": false,
          "internalType": "string",
          "name": "name",
          "type": "string"
        },
        {
          "indexed": false,
          "internalType": "address",
          "name": "initiator",
          "type": "address"
        }
      ],
      "name": "ContractCreated",
      "type": "event"
    },
    {
      "anonymous": false,
      "inputs": [
        {
          "indexed": false,
          "internalType": "bytes32",
          "name": "contractId",
          "type": "bytes32"
        },
        {
          "indexed": false,
          "internalType": "address",
          "name": "party",
          "type": "address"
        }
      ],
      "name": "ContractHidden",
      "type": "event"
    },
    {
      "anonymous": false,
      "inputs": [
        {
          "indexed": false,
          "internalType": "bytes32",
          "name": "contractId",
          "type": "bytes32"
        }
      ],
      "name": "ContractSigningCompleted",
      "type": "event"
    },
    {
      "anonymous": false,
      "inputs": [
        {
          "indexed": true,
          "internalType": "address",
          "name": "previousOwner",
          "type": "address"
        },
        {
          "indexed": true,
          "internalType": "address",
          "name": "newOwner",
          "type": "address"
        }
      ],
      "name": "OwnershipTransferred",
      "type": "event"
    },
    {
      "anonymous": false,
      "inputs": [
        {
          "indexed": false,
          "internalType": "bytes32",
          "name": "contractId",
          "type": "bytes32"
        },
        {
          "indexed": false,
          "internalType": "uint168[]",
          "name": "signersData",
          "type": "uint168[]"
        },
        {
          "indexed": false,
          "internalType": "address[]",
          "name": "viewers",
          "type": "address[]"
        }
      ],
      "name": "RecipientsAdded",
      "type": "event"
    },
    {
      "anonymous": false,
      "inputs": [
        {
          "indexed": false,
          "internalType": "bytes32",
          "name": "contractId",
          "type": "bytes32"
        },
        {
          "indexed": false,
          "internalType": "address",
          "name": "signer",
          "type": "address"
        },
        {
          "indexed": false,
          "internalType": "string",
          "name": "rawSignatureDataHash",
          "type": "string"
        }
      ],
      "name": "SignerSigned",
      "type": "event"
    },
    {
      "anonymous": false,
      "inputs": [
        {
          "indexed": true,
          "internalType": "address",
          "name": "implementation",
          "type": "address"
        }
      ],
      "name": "Upgraded",
      "type": "event"
    },
    {
      "inputs": [],
      "name": "STATUS_BITMASK",
      "outputs": [
        {
          "internalType": "uint8",
          "name": "",
          "type": "uint8"
        }
      ],
      "stateMutability": "view",
      "type": "function"
    },
    {
      "inputs": [],
      "name": "STEP_BITMASK",
      "outputs": [
        {
          "internalType": "uint8",
          "name": "",
          "type": "uint8"
        }
      ],
      "stateMutability": "view",
      "type": "function"
    },
    {
      "inputs": [],
      "name": "chainId",
      "outputs": [
        {
          "internalType": "uint256",
          "name": "",
          "type": "uint256"
        }
      ],
      "stateMutability": "view",
      "type": "function"
    },
    {
      "inputs": [
        {
          "internalType": "string",
          "name": "name",
          "type": "string"
        },
        {
          "internalType": "uint32",
          "name": "expiry_",
          "type": "uint32"
        },
        {
          "internalType": "string",
          "name": "rawDataHash_",
          "type": "string"
        },
        {
          "internalType": "uint8[]",
          "name": "signersPerStep",
          "type": "uint8[]"
        },
        {
          "internalType": "uint168[]",
          "name": "signersData",
          "type": "uint168[]"
        },
        {
          "internalType": "address[]",
          "name": "viewers",
          "type": "address[]"
        }
      ],
      "name": "create",
      "outputs": [
        {
          "internalType": "bytes32",
          "name": "contractId",
          "type": "bytes32"
        }
      ],
      "stateMutability": "nonpayable",
      "type": "function"
    },
    {
      "inputs": [
        {
          "internalType": "uint168",
          "name": "signerData",
          "type": "uint168"
        }
      ],
      "name": "decodeSignerData",
      "outputs": [
        {
          "internalType": "address",
          "name": "signer",
          "type": "address"
        },
        {
          "internalType": "uint8",
          "name": "step",
          "type": "uint8"
        },
        {
          "internalType": "uint8",
          "name": "hasSigned",
          "type": "uint8"
        }
      ],
      "stateMutability": "pure",
      "type": "function"
    },
    {
      "inputs": [
        {
          "internalType": "address",
          "name": "signer",
          "type": "address"
        },
        {
          "internalType": "uint8",
          "name": "step",
          "type": "uint8"
        }
      ],
      "name": "encodeSignerData",
      "outputs": [
        {
          "internalType": "uint168",
          "name": "encodedSignerData",
          "type": "uint168"
        }
      ],
      "stateMutability": "pure",
      "type": "function"
    },
    {
      "inputs": [
        {
          "internalType": "bytes32",
          "name": "contractId",
          "type": "bytes32"
        }
      ],
      "name": "getContract",
      "outputs": [
        {
          "components": [
            {
              "internalType": "uint32",
              "name": "expiry",
              "type": "uint32"
            },
            {
              "internalType": "string",
              "name": "rawDataHash",
              "type": "string"
            },
            {
              "internalType": "uint8[]",
              "name": "signersLeftPerStep",
              "type": "uint8[]"
            },
            {
              "internalType": "uint168[]",
              "name": "packedSignersAndStatus",
              "type": "uint168[]"
            }
          ],
          "internalType": "struct EthSignV4.Contract",
          "name": "",
          "type": "tuple"
        }
      ],
      "stateMutability": "view",
      "type": "function"
    },
    {
      "inputs": [
        {
          "internalType": "bytes32",
          "name": "contractId",
          "type": "bytes32"
        }
      ],
      "name": "hide",
      "outputs": [],
      "stateMutability": "nonpayable",
      "type": "function"
    },
    {
      "inputs": [
        {
          "internalType": "uint256",
          "name": "chainId_",
          "type": "uint256"
        },
        {
          "internalType": "address",
          "name": "forwarder",
          "type": "address"
        }
      ],
      "name": "initialize",
      "outputs": [],
      "stateMutability": "nonpayable",
      "type": "function"
    },
    {
      "inputs": [
        {
          "internalType": "address",
          "name": "forwarder",
          "type": "address"
        }
      ],
      "name": "isTrustedForwarder",
      "outputs": [
        {
          "internalType": "bool",
          "name": "",
          "type": "bool"
        }
      ],
      "stateMutability": "view",
      "type": "function"
    },
    {
      "inputs": [],
      "name": "owner",
      "outputs": [
        {
          "internalType": "address",
          "name": "",
          "type": "address"
        }
      ],
      "stateMutability": "view",
      "type": "function"
    },
    {
      "inputs": [],
      "name": "renounceOwnership",
      "outputs": [],
      "stateMutability": "nonpayable",
      "type": "function"
    },
    {
      "inputs": [
        {
          "internalType": "bytes32",
          "name": "contractId",
          "type": "bytes32"
        },
        {
          "internalType": "uint256",
          "name": "index",
          "type": "uint256"
        },
        {
          "internalType": "bytes",
          "name": "signature",
          "type": "bytes"
        },
        {
          "internalType": "string",
          "name": "rawSignatureDataHash",
          "type": "string"
        }
      ],
      "name": "sign",
      "outputs": [],
      "stateMutability": "nonpayable",
      "type": "function"
    },
    {
      "inputs": [
        {
          "internalType": "address",
          "name": "newOwner",
          "type": "address"
        }
      ],
      "name": "transferOwnership",
      "outputs": [],
      "stateMutability": "nonpayable",
      "type": "function"
    },
    {
      "inputs": [],
      "name": "trustedForwarder",
      "outputs": [
        {
          "internalType": "address",
          "name": "",
          "type": "address"
        }
      ],
      "stateMutability": "view",
      "type": "function"
    },
    {
      "inputs": [
        {
          "internalType": "address",
          "name": "newImplementation",
          "type": "address"
        }
      ],
      "name": "upgradeTo",
      "outputs": [],
      "stateMutability": "nonpayable",
      "type": "function"
    },
    {
      "inputs": [
        {
          "internalType": "address",
          "name": "newImplementation",
          "type": "address"
        },
        {
          "internalType": "bytes",
          "name": "data",
          "type": "bytes"
        }
      ],
      "name": "upgradeToAndCall",
      "outputs": [],
      "stateMutability": "payable",
      "type": "function"
    }
  ],
  "bytecode": "0x60a06040523060805234801561001457600080fd5b506080516125a96100456000396000818161042301528181610463015281816104ec015261052c01526125a96000f3fe6080604052600436106100fe5760003560e01c806393f2e69e11610095578063ac39154c11610064578063ac39154c146102ff578063be765faa1461031f578063da35a26f1461033f578063e16c7d981461035f578063f2fde38b1461038c57600080fd5b806393f2e69e1461023f5780639a8a05921461029f578063aa3c029e146102c3578063ab7a0c4b146102ea57600080fd5b80635ed78ed6116100d15780635ed78ed6146101b4578063715018a6146101d45780637da0a877146101e95780638da5cb5b1461022157600080fd5b806328ea3a5a146101035780633659cfe6146101405780634f1ef28614610162578063572b6c0514610175575b600080fd5b34801561010f57600080fd5b5061012361011e366004611c01565b6103ac565b6040516001600160a81b0390911681526020015b60405180910390f35b34801561014c57600080fd5b5061016061015b366004611c34565b610418565b005b610160610170366004611c65565b6104e1565b34801561018157600080fd5b506101a4610190366004611c34565b60c9546001600160a01b0391821691161490565b6040519015158152602001610137565b3480156101c057600080fd5b506101606101cf366004611d27565b61059b565b3480156101e057600080fd5b506101606105e8565b3480156101f557600080fd5b5060c954610209906001600160a01b031681565b6040516001600160a01b039091168152602001610137565b34801561022d57600080fd5b506033546001600160a01b0316610209565b34801561024b57600080fd5b5061027661025a366004611d57565b600881901c6001600160a01b031691600182811c607f16921690565b604080516001600160a01b03909416845260ff9283166020850152911690820152606001610137565b3480156102ab57600080fd5b506102b560fb5481565b604051908152602001610137565b3480156102cf57600080fd5b506102d8600181565b60405160ff9091168152602001610137565b3480156102f657600080fd5b506102d860fe81565b34801561030b57600080fd5b5061016061031a366004611db4565b61063d565b34801561032b57600080fd5b506102b561033a366004611e90565b610b6c565b34801561034b57600080fd5b5061016061035a366004611f94565b610d27565b34801561036b57600080fd5b5061037f61037a366004611d27565b610e72565b6040516101379190612057565b34801561039857600080fd5b506101606103a7366004611c34565b61103d565b600060fe60ff8316106103fa5760405162461bcd60e51b815260206004820152601160248201527053746570206f7574206f662072616e676560781b60448201526064015b60405180910390fd5b5060089190911b610100600160a81b031660019190911b60fe161790565b306001600160a01b037f00000000000000000000000000000000000000000000000000000000000000001614156104615760405162461bcd60e51b81526004016103f1906120e7565b7f00000000000000000000000000000000000000000000000000000000000000006001600160a01b03166104936110f4565b6001600160a01b0316146104b95760405162461bcd60e51b81526004016103f190612133565b6104c281611122565b604080516000808252602082019092526104de9183919061116b565b50565b306001600160a01b037f000000000000000000000000000000000000000000000000000000000000000016141561052a5760405162461bcd60e51b81526004016103f1906120e7565b7f00000000000000000000000000000000000000000000000000000000000000006001600160a01b031661055c6110f4565b6001600160a01b0316146105825760405162461bcd60e51b81526004016103f190612133565b61058b82611122565b6105978282600161116b565b5050565b7fc6c7eac6763ecb85001e3129c36ca4c97e0c311a3927794f3ef8a81ce7471542816105c56112b6565b604080519283526001600160a01b0390911660208301520160405180910390a150565b6105f06112b6565b6001600160a01b031661060b6033546001600160a01b031690565b6001600160a01b0316146106315760405162461bcd60e51b81526004016103f19061217f565b61063b60006112c5565b565b600086815260fd602052604090206107a56106566112b6565b61076960fc546107298b86600101805461066f906121b4565b80601f016020809104026020016040519081016040528092919081815260200182805461069b906121b4565b80156106e85780601f106106bd576101008083540402835291602001916106e8565b820191906000526020600020905b8154815290600101906020018083116106cb57829003601f168201915b505050505089898080601f01602080910402602001604051908101604052809392919081815260200183838082843760009201919091525061131792505050565b60405161190160f01b6020820152602281018390526042810182905260009060620160405160208183030381529060405280519060200120905092915050565b87878080601f01602080910402602001604051908101604052809392919081815260200183838082843760009201919091525061139492505050565b6107e55760405162461bcd60e51b8152602060048201526011602482015270496e76616c6964207369676e617475726560781b60448201526064016103f1565b6000600160fe60ff16836003018981548110610803576108036121ef565b600091825260209091200154166001600160a81b0390811690911c1690506108296112b6565b6001600160a01b03166008836003018981548110610849576108496121ef565b6000918252602090912001546001600160a81b0316901c6001600160a01b0316146108a85760405162461bcd60e51b815260206004820152600f60248201526e0a6d2cedccae440dad2e6dac2e8c6d608b1b60448201526064016103f1565b600160ff168260030188815481106108c2576108c26121ef565b600091825260209091200154166001600160a81b0316156109165760405162461bcd60e51b815260206004820152600e60248201526d105b1c9958591e481cda59db995960921b60448201526064016103f1565b80158061095f57506002820161092d60018361221b565b8154811061093d5761093d6121ef565b60009182526020918290209181049091015460ff601f9092166101000a900416155b61099b5760405162461bcd60e51b815260206004820152600d60248201526c2737ba103cb7bab9103a3ab93760991b60448201526064016103f1565b815463ffffffff1615806109b7575081544263ffffffff909116115b6109ed5760405162461bcd60e51b8152602060048201526007602482015266115e1c1a5c995960ca1b60448201526064016103f1565b6001826003018881548110610a0457610a046121ef565b600091825260209091200180546001600160a81b03928316928116929092176001600160a81b03199092169190911790556002820180546001919083908110610a4f57610a4f6121ef565b90600052602060002090602091828204019190068282829054906101000a900460ff16610a7c9190612232565b92506101000a81548160ff021916908360ff1602179055507f58fd34ba89213374587ca2e6987d3e5bdd15ae53e6fb05e2549d91fc06a2b30f88610abe6112b6565b8686604051610ad0949392919061227e565b60405180910390a1816002018181548110610aed57610aed6121ef565b60009182526020918290209181049091015460ff601f9092166101000a900416158015610b2957506002820154610b269060019061221b565b81145b15610b62576040518881527f7ecc47f426e9eeb810dc377afa3170124218b73b4b79a50aba48e7b0c97a613b9060200160405180910390a15b5050505050505050565b600060fb548c8c8c8c8c8c8c8c8c604051602001610b939a999897969594939291906122ef565b60408051601f198184030181529181528151602092830120600081815260fd909352912060038101549192509015610bff5760405162461bcd60e51b815260206004820152600f60248201526e436f6e74726163742065786973747360881b60448201526064016103f1565b428b63ffffffff161180610c17575063ffffffff8b16155b610c545760405162461bcd60e51b815260206004820152600e60248201526d496e76616c69642065787069727960901b60448201526064016103f1565b7ff0662a62c39bb6a651ed42b995180fb1e728e04c17799dedefb8a3525e227b48828e8e610c806112b6565b604051610c909493929190612389565b60405180910390a17f20f95a58eae54b340545ff41c31e100431d1a8f09f8f90106a93a7c2edcf69ff8287878787604051610ccf9594939291906123bc565b60405180910390a1805463ffffffff191663ffffffff8c16178155610cf8600182018b8b611a44565b50610d07600282018989611ac8565b50610d16600382018787611b6c565b50509b9a5050505050505050505050565b600054610100900460ff16610d425760005460ff1615610d46565b303b155b610d625760405162461bcd60e51b81526004016103f190612423565b600054610100900460ff16158015610d84576000805461ffff19166101011790555b610d8e83836114e0565b60fb54604080517fd87cd6ef79d4e2b95e15ce8abf732db51ec771f1ca2edccf22a46c729ac5647260208201527f60570743c3aa81622759289f024257add09e8c4aa0cf1732651de4dd5231d716918101919091527f13600b294191fc92924bb3ce4b969c1e7e2bab8f4c93c3fc6d0a51733df3c060606082015260808101919091523060a08201527fad27b301e5f37100ff157cc76d31929cff6e67812684f9f8bc3d7f70865dd81060c082015260e00160408051601f19818403018152919052805160209091012060fc558015610e6d576000805461ff00191690555b505050565b610ea36040518060800160405280600063ffffffff1681526020016060815260200160608152602001606081525090565b600082815260fd6020908152604091829020825160808101909352805463ffffffff1683526001810180549192840191610edc906121b4565b80601f0160208091040260200160405190810160405280929190818152602001828054610f08906121b4565b8015610f555780601f10610f2a57610100808354040283529160200191610f55565b820191906000526020600020905b815481529060010190602001808311610f3857829003601f168201915b5050505050815260200160028201805480602002602001604051908101604052809291908181526020018280548015610fcb57602002820191906000526020600020906000905b825461010083900a900460ff16815260206001928301818104948501949093039092029101808411610f9c5790505b505050505081526020016003820180548060200260200160405190810160405280929190818152602001828054801561102d57602002820191906000526020600020905b81546001600160a81b0316815260019091019060200180831161100f575b5050505050815250509050919050565b6110456112b6565b6001600160a01b03166110606033546001600160a01b031690565b6001600160a01b0316146110865760405162461bcd60e51b81526004016103f19061217f565b6001600160a01b0381166110eb5760405162461bcd60e51b815260206004820152602660248201527f4f776e61626c653a206e6577206f776e657220697320746865207a65726f206160448201526564647265737360d01b60648201526084016103f1565b6104de816112c5565b7f360894a13ba1a3210667c828492db98dca3e2076cc3735a920a3ca505d382bbc546001600160a01b031690565b61112a6112b6565b6001600160a01b03166111456033546001600160a01b031690565b6001600160a01b0316146104de5760405162461bcd60e51b81526004016103f19061217f565b60006111756110f4565b905061118084611571565b60008351118061118d5750815b1561119e5761119c8484611616565b505b7f4910fdfa16fed3260ed0e7147f7cc6da11a60208b5b9406d12a635614ffd9143805460ff166112af57805460ff191660011781556040516001600160a01b038316602482015261121d90869060440160408051601f198184030181529190526020810180516001600160e01b0316631b2ce7f360e11b179052611616565b50805460ff1916815561122e6110f4565b6001600160a01b0316826001600160a01b0316146112a65760405162461bcd60e51b815260206004820152602f60248201527f45524331393637557067726164653a207570677261646520627265616b73206660448201526e75727468657220757067726164657360881b60648201526084016103f1565b6112af85611701565b5050505050565b60006112c0611741565b905090565b603380546001600160a01b038381166001600160a01b0319831681179093556040519116919082907f8be0079c531659141344cd1fd0a4f28419497f9722a3daafe3b4186f6b6457e090600090a35050565b60007fa61a64e34177d5273b5985fa9eb19616965033f6593a2d0c2f7d77d03b4b6dae8484805190602001208480519060200120604051602001611374949392919093845260208401929092526040830152606082015260800190565b6040516020818303038152906040528051906020012090505b9392505050565b60008060006113a38585611769565b909250905060008160048111156113bc576113bc612471565b1480156113da5750856001600160a01b0316826001600160a01b0316145b156113ea5760019250505061138d565b600080876001600160a01b0316631626ba7e60e01b8888604051602401611412929190612487565b60408051601f198184030181529181526020820180516001600160e01b03166001600160e01b031990941693909317909252905161145091906124a8565b600060405180830381855afa9150503d806000811461148b576040519150601f19603f3d011682016040523d82523d6000602084013e611490565b606091505b50915091508180156114a3575080516020145b80156114d457508051630b135d3f60e11b906114c890830160209081019084016124c4565b6001600160e01b031916145b98975050505050505050565b600054610100900460ff166114fb5760005460ff16156114ff565b303b155b61151b5760405162461bcd60e51b81526004016103f190612423565b600054610100900460ff1615801561153d576000805461ffff19166101011790555b60fb83905561154a6117d9565b61155382611810565b61155b611848565b8015610e6d576000805461ff0019169055505050565b803b6115d55760405162461bcd60e51b815260206004820152602d60248201527f455243313936373a206e657720696d706c656d656e746174696f6e206973206e60448201526c1bdd08184818dbdb9d1c9858dd609a1b60648201526084016103f1565b7f360894a13ba1a3210667c828492db98dca3e2076cc3735a920a3ca505d382bbc80546001600160a01b0319166001600160a01b0392909216919091179055565b6060823b6116755760405162461bcd60e51b815260206004820152602660248201527f416464726573733a2064656c65676174652063616c6c20746f206e6f6e2d636f6044820152651b9d1c9858dd60d21b60648201526084016103f1565b600080846001600160a01b03168460405161169091906124a8565b600060405180830381855af49150503d80600081146116cb576040519150601f19603f3d011682016040523d82523d6000602084013e6116d0565b606091505b50915091506116f8828260405180606001604052806027815260200161254d6027913961187f565b95945050505050565b61170a81611571565b6040516001600160a01b038216907fbc7cd75a20ee27fd9adebab32041f755214dbc6bffa90cc0225b39da2e5c2d3b90600090a250565b60c9546000906001600160a01b0316331415611764575060131936013560601c90565b503390565b6000808251604114156117a05760208301516040840151606085015160001a611794878285856118b8565b945094505050506117d2565b8251604014156117ca57602083015160408401516117bf8683836119a5565b9350935050506117d2565b506000905060025b9250929050565b600054610100900460ff166118005760405162461bcd60e51b81526004016103f1906124ee565b6118086119d4565b61063b6119d4565b600054610100900460ff166118375760405162461bcd60e51b81526004016103f1906124ee565b61183f6119d4565b6104de816119fb565b600054610100900460ff1661186f5760405162461bcd60e51b81526004016103f1906124ee565b61063b61187a6112b6565b6112c5565b6060831561188e57508161138d565b82511561189e5782518084602001fd5b8160405162461bcd60e51b81526004016103f19190612539565b6000807f7fffffffffffffffffffffffffffffff5d576e7357a4501ddfe92f46681b20a08311156118ef575060009050600361199c565b8460ff16601b1415801561190757508460ff16601c14155b15611918575060009050600461199c565b6040805160008082526020820180845289905260ff881692820192909252606081018690526080810185905260019060a0016020604051602081039080840390855afa15801561196c573d6000803e3d6000fd5b5050604051601f1901519150506001600160a01b0381166119955760006001925092505061199c565b9150600090505b94509492505050565b6000806001600160ff1b03831660ff84901c601b016119c6878288856118b8565b935093505050935093915050565b600054610100900460ff1661063b5760405162461bcd60e51b81526004016103f1906124ee565b600054610100900460ff16611a225760405162461bcd60e51b81526004016103f1906124ee565b60c980546001600160a01b0319166001600160a01b0392909216919091179055565b828054611a50906121b4565b90600052602060002090601f016020900481019282611a725760008555611ab8565b82601f10611a8b5782800160ff19823516178555611ab8565b82800160010185558215611ab8579182015b82811115611ab8578235825591602001919060010190611a9d565b50611ac4929150611bbf565b5090565b82805482825590600052602060002090601f01602090048101928215611ab85791602002820160005b83821115611b3257833560ff1683826101000a81548160ff021916908360ff1602179055509260200192600101602081600001049283019260010302611af1565b8015611b5f5782816101000a81549060ff0219169055600101602081600001049283019260010302611b32565b5050611ac4929150611bbf565b828054828255906000526020600020908101928215611ab8579160200282015b82811115611ab85781546001600160a81b0319166001600160a81b03843516178255602090920191600190910190611b8c565b5b80821115611ac45760008155600101611bc0565b80356001600160a01b0381168114611beb57600080fd5b919050565b803560ff81168114611beb57600080fd5b60008060408385031215611c1457600080fd5b611c1d83611bd4565b9150611c2b60208401611bf0565b90509250929050565b600060208284031215611c4657600080fd5b61138d82611bd4565b634e487b7160e01b600052604160045260246000fd5b60008060408385031215611c7857600080fd5b611c8183611bd4565b9150602083013567ffffffffffffffff80821115611c9e57600080fd5b818501915085601f830112611cb257600080fd5b813581811115611cc457611cc4611c4f565b604051601f8201601f19908116603f01168101908382118183101715611cec57611cec611c4f565b81604052828152886020848701011115611d0557600080fd5b8260208601602083013760006020848301015280955050505050509250929050565b600060208284031215611d3957600080fd5b5035919050565b80356001600160a81b0381168114611beb57600080fd5b600060208284031215611d6957600080fd5b61138d82611d40565b60008083601f840112611d8457600080fd5b50813567ffffffffffffffff811115611d9c57600080fd5b6020830191508360208285010111156117d257600080fd5b60008060008060008060808789031215611dcd57600080fd5b8635955060208701359450604087013567ffffffffffffffff80821115611df357600080fd5b611dff8a838b01611d72565b90965094506060890135915080821115611e1857600080fd5b50611e2589828a01611d72565b979a9699509497509295939492505050565b803563ffffffff81168114611beb57600080fd5b60008083601f840112611e5d57600080fd5b50813567ffffffffffffffff811115611e7557600080fd5b6020830191508360208260051b85010111156117d257600080fd5b600080600080600080600080600080600060c08c8e031215611eb157600080fd5b67ffffffffffffffff808d351115611ec857600080fd5b611ed58e8e358f01611d72565b909c509a50611ee660208e01611e37565b99508060408e01351115611ef957600080fd5b611f098e60408f01358f01611d72565b909950975060608d0135811015611f1f57600080fd5b611f2f8e60608f01358f01611e4b565b909750955060808d0135811015611f4557600080fd5b611f558e60808f01358f01611e4b565b909550935060a08d0135811015611f6b57600080fd5b50611f7c8d60a08e01358e01611e4b565b81935080925050509295989b509295989b9093969950565b60008060408385031215611fa757600080fd5b82359150611c2b60208401611bd4565b60005b83811015611fd2578181015183820152602001611fba565b83811115611fe1576000848401525b50505050565b60008151808452611fff816020860160208601611fb7565b601f01601f19169290920160200192915050565b600081518084526020808501945080840160005b8381101561204c5781516001600160a81b031687529582019590820190600101612027565b509495945050505050565b6000602080835263ffffffff84511681840152808401516080604085015261208260a0850182611fe7565b6040860151601f1986830381016060880152815180845291850193506000929091908501905b808410156120cb57845160ff1682529385019360019390930192908501906120a8565b5060608801519450818782030160808801526114d48186612013565b6020808252602c908201527f46756e6374696f6e206d7573742062652063616c6c6564207468726f7567682060408201526b19195b1959d85d1958d85b1b60a21b606082015260800190565b6020808252602c908201527f46756e6374696f6e206d7573742062652063616c6c6564207468726f7567682060408201526b6163746976652070726f787960a01b606082015260800190565b6020808252818101527f4f776e61626c653a2063616c6c6572206973206e6f7420746865206f776e6572604082015260600190565b600181811c908216806121c857607f821691505b602082108114156121e957634e487b7160e01b600052602260045260246000fd5b50919050565b634e487b7160e01b600052603260045260246000fd5b634e487b7160e01b600052601160045260246000fd5b60008282101561222d5761222d612205565b500390565b600060ff821660ff84168082101561224c5761224c612205565b90039392505050565b81835281816020850137506000828201602090810191909152601f909101601f19169091010190565b8481526001600160a01b03841660208201526060604082018190526000906122a99083018486612255565b9695505050505050565b8183526000602080850194508260005b8581101561204c576001600160a81b036122dc83611d40565b16875295820195908201906001016122c3565b8a81526000602060c08184015261230a60c084018c8e612255565b63ffffffff8b1660408501528381036060850152612329818a8c612255565b8481036080860152878152889150820160005b888110156123625760ff61234f84611bf0565b168252918301919083019060010161233c565b5084810360a08601526123768187896122b3565b9f9e505050505050505050505050505050565b8481526060602082015260006123a3606083018587612255565b905060018060a01b038316604083015295945050505050565b858152600060206060818401526123d76060840187896122b3565b83810360408501528481528590820160005b86811015612415576001600160a01b0361240284611bd4565b16825291830191908301906001016123e9565b509998505050505050505050565b6020808252602e908201527f496e697469616c697a61626c653a20636f6e747261637420697320616c72656160408201526d191e481a5b9a5d1a585b1a5e995960921b606082015260800190565b634e487b7160e01b600052602160045260246000fd5b8281526040602082015260006124a06040830184611fe7565b949350505050565b600082516124ba818460208701611fb7565b9190910192915050565b6000602082840312156124d657600080fd5b81516001600160e01b03198116811461138d57600080fd5b6020808252602b908201527f496e697469616c697a61626c653a20636f6e7472616374206973206e6f74206960408201526a6e697469616c697a696e6760a81b606082015260800190565b60208152600061138d6020830184611fe756fe416464726573733a206c6f772d6c6576656c2064656c65676174652063616c6c206661696c6564a2646970667358221220d6540c855e435768654b3efedb6d5b035f870857b9b9f9f190f5316818e4902a64736f6c634300080c0033",
  "linkReferences": {},
  "deployedLinkReferences": {}
}