{
    "_format": "hh-sol-artifact-1",
    "contractName": "EthSignPublicEncryptionKeyRegistry",
    "sourceName": "contracts/EthSignPublicEncryptionKeyRegistry.sol",
    "abi": [
        {
            "inputs": [
                {
                    "internalType": "address",
                    "name": "forwarder",
                    "type": "address"
                }
            ],
            "stateMutability": "nonpayable",
            "type": "constructor"
        },
        {
            "anonymous": false,
            "inputs": [
                {
                    "indexed": false,
                    "internalType": "address",
                    "name": "entity",
                    "type": "address"
                },
                {
                    "indexed": false,
                    "internalType": "string",
                    "name": "publicEncryptionKey",
                    "type": "string"
                }
            ],
            "name": "Registered",
            "type": "event"
        },
        {
            "inputs": [
                {
                    "internalType": "address",
                    "name": "forwarder",
                    "type": "address"
                }
            ],
            "name": "isTrustedForwarder",
            "outputs": [
                {
                    "internalType": "bool",
                    "name": "",
                    "type": "bool"
                }
            ],
            "stateMutability": "view",
            "type": "function"
        },
        {
            "inputs": [
                {
                    "internalType": "string",
                    "name": "publicEncryptionKey",
                    "type": "string"
                }
            ],
            "name": "register",
            "outputs": [],
            "stateMutability": "nonpayable",
            "type": "function"
        },
        {
            "inputs": [
                {
                    "internalType": "address",
                    "name": "",
                    "type": "address"
                }
            ],
            "name": "registry",
            "outputs": [
                {
                    "internalType": "string",
                    "name": "",
                    "type": "string"
                }
            ],
            "stateMutability": "view",
            "type": "function"
        }
    ],
    "bytecode": "0x608060405234801561001057600080fd5b506040516104c33803806104c383398101604081905261002f91610054565b600080546001600160a01b0319166001600160a01b0392909216919091179055610084565b60006020828403121561006657600080fd5b81516001600160a01b038116811461007d57600080fd5b9392505050565b610430806100936000396000f3fe608060405234801561001057600080fd5b50600436106100415760003560e01c8063038defd714610046578063572b6c051461006f578063f2c298be146100a1575b600080fd5b610059610054366004610288565b6100b6565b60405161006691906102b8565b60405180910390f35b61009161007d366004610288565b6000546001600160a01b0391821691161490565b6040519015158152602001610066565b6100b46100af36600461030d565b610150565b005b600160205260009081526040902080546100cf9061037f565b80601f01602080910402602001604051908101604052809291908181526020018280546100fb9061037f565b80156101485780601f1061011d57610100808354040283529160200191610148565b820191906000526020600020905b81548152906001019060200180831161012b57829003601f168201915b505050505081565b81816001600061015e6101c9565b6001600160a01b0316815260208101919091526040016000206101829290916101ef565b507fb3eccf73f39b1c07947c780b2b39df2a1bb058b4037b0a42d0881ca1a028a1326101ac6101c9565b83836040516101bd939291906103ba565b60405180910390a15050565b600080546001600160a01b03163314156101ea575060131936013560601c90565b503390565b8280546101fb9061037f565b90600052602060002090601f01602090048101928261021d5760008555610263565b82601f106102365782800160ff19823516178555610263565b82800160010185558215610263579182015b82811115610263578235825591602001919060010190610248565b5061026f929150610273565b5090565b5b8082111561026f5760008155600101610274565b60006020828403121561029a57600080fd5b81356001600160a01b03811681146102b157600080fd5b9392505050565b600060208083528351808285015260005b818110156102e5578581018301518582016040015282016102c9565b818111156102f7576000604083870101525b50601f01601f1916929092016040019392505050565b6000806020838503121561032057600080fd5b823567ffffffffffffffff8082111561033857600080fd5b818501915085601f83011261034c57600080fd5b81358181111561035b57600080fd5b86602082850101111561036d57600080fd5b60209290920196919550909350505050565b600181811c9082168061039357607f821691505b602082108114156103b457634e487b7160e01b600052602260045260246000fd5b50919050565b6001600160a01b03841681526040602082018190528101829052818360608301376000818301606090810191909152601f909201601f191601019291505056fea2646970667358221220fdce81ae39adf1a40505fb53ca1518739e57a323512bf820e5edcb6c0609250a64736f6c634300080c0033",
    "linkReferences": {},
    "deployedLinkReferences": {}
}