{
  "_format": "hh-sol-artifact-1",
  "contractName": "EthSignV4",
  "sourceName": "contracts/EthSignV4.sol",
  "abi": [
    {
      "anonymous": false,
      "inputs": [
        {
          "indexed": false,
          "internalType": "address",
          "name": "previousAdmin",
          "type": "address"
        },
        {
          "indexed": false,
          "internalType": "address",
          "name": "newAdmin",
          "type": "address"
        }
      ],
      "name": "AdminChanged",
      "type": "event"
    },
    {
      "anonymous": false,
      "inputs": [
        {
          "indexed": true,
          "internalType": "address",
          "name": "beacon",
          "type": "address"
        }
      ],
      "name": "BeaconUpgraded",
      "type": "event"
    },
    {
      "anonymous": false,
      "inputs": [
        {
          "indexed": false,
          "internalType": "bytes32",
          "name": "contractId",
          "type": "bytes32"
        },
        {
          "indexed": false,
          "internalType": "string",
          "name": "name",
          "type": "string"
        },
        {
          "indexed": false,
          "internalType": "address",
          "name": "initiator",
          "type": "address"
        }
      ],
      "name": "ContractCreated",
      "type": "event"
    },
    {
      "anonymous": false,
      "inputs": [
        {
          "indexed": false,
          "internalType": "bytes32",
          "name": "contractId",
          "type": "bytes32"
        },
        {
          "indexed": false,
          "internalType": "address",
          "name": "party",
          "type": "address"
        }
      ],
      "name": "ContractHidden",
      "type": "event"
    },
    {
      "anonymous": false,
      "inputs": [
        {
          "indexed": false,
          "internalType": "bytes32",
          "name": "contractId",
          "type": "bytes32"
        }
      ],
      "name": "ContractSigningCompleted",
      "type": "event"
    },
    {
      "anonymous": false,
      "inputs": [
        {
          "indexed": true,
          "internalType": "address",
          "name": "previousOwner",
          "type": "address"
        },
        {
          "indexed": true,
          "internalType": "address",
          "name": "newOwner",
          "type": "address"
        }
      ],
      "name": "OwnershipTransferred",
      "type": "event"
    },
    {
      "anonymous": false,
      "inputs": [
        {
          "indexed": false,
          "internalType": "bytes32",
          "name": "contractId",
          "type": "bytes32"
        },
        {
          "indexed": false,
          "internalType": "address[]",
          "name": "signers",
          "type": "address[]"
        },
        {
          "indexed": false,
          "internalType": "address[]",
          "name": "viewers",
          "type": "address[]"
        }
      ],
      "name": "RecipientsAdded",
      "type": "event"
    },
    {
      "anonymous": false,
      "inputs": [
        {
          "indexed": false,
          "internalType": "bytes32",
          "name": "contractId",
          "type": "bytes32"
        },
        {
          "indexed": false,
          "internalType": "address",
          "name": "signer",
          "type": "address"
        }
      ],
      "name": "SignerSigned",
      "type": "event"
    },
    {
      "anonymous": false,
      "inputs": [
        {
          "indexed": true,
          "internalType": "address",
          "name": "implementation",
          "type": "address"
        }
      ],
      "name": "Upgraded",
      "type": "event"
    },
    {
      "inputs": [],
      "name": "STATUS_BITMASK",
      "outputs": [
        {
          "internalType": "uint8",
          "name": "",
          "type": "uint8"
        }
      ],
      "stateMutability": "view",
      "type": "function"
    },
    {
      "inputs": [],
      "name": "STEP_BITMASK",
      "outputs": [
        {
          "internalType": "uint8",
          "name": "",
          "type": "uint8"
        }
      ],
      "stateMutability": "view",
      "type": "function"
    },
    {
      "inputs": [],
      "name": "chainId",
      "outputs": [
        {
          "internalType": "uint256",
          "name": "",
          "type": "uint256"
        }
      ],
      "stateMutability": "view",
      "type": "function"
    },
    {
      "inputs": [
        {
          "internalType": "string",
          "name": "name",
          "type": "string"
        },
        {
          "internalType": "uint32",
          "name": "expiry_",
          "type": "uint32"
        },
        {
          "internalType": "bytes32",
          "name": "rawDataHash_",
          "type": "bytes32"
        },
        {
          "internalType": "uint8[]",
          "name": "signersPerStep",
          "type": "uint8[]"
        },
        {
          "internalType": "address[]",
          "name": "signers",
          "type": "address[]"
        },
        {
          "internalType": "uint168[]",
          "name": "signersData",
          "type": "uint168[]"
        },
        {
          "internalType": "address[]",
          "name": "viewers",
          "type": "address[]"
        }
      ],
      "name": "create",
      "outputs": [
        {
          "internalType": "bytes32",
          "name": "contractId",
          "type": "bytes32"
        }
      ],
      "stateMutability": "nonpayable",
      "type": "function"
    },
    {
      "inputs": [
        {
          "internalType": "uint168",
          "name": "signerData",
          "type": "uint168"
        }
      ],
      "name": "decodeSignerData",
      "outputs": [
        {
          "internalType": "address",
          "name": "signer",
          "type": "address"
        },
        {
          "internalType": "uint8",
          "name": "step",
          "type": "uint8"
        },
        {
          "internalType": "uint8",
          "name": "hasSigned",
          "type": "uint8"
        }
      ],
      "stateMutability": "pure",
      "type": "function"
    },
    {
      "inputs": [
        {
          "internalType": "address",
          "name": "signer",
          "type": "address"
        },
        {
          "internalType": "uint8",
          "name": "step",
          "type": "uint8"
        }
      ],
      "name": "encodeSignerData",
      "outputs": [
        {
          "internalType": "uint168",
          "name": "encodedSignerData",
          "type": "uint168"
        }
      ],
      "stateMutability": "pure",
      "type": "function"
    },
    {
      "inputs": [
        {
          "internalType": "bytes32",
          "name": "contractId",
          "type": "bytes32"
        }
      ],
      "name": "getContract",
      "outputs": [
        {
          "components": [
            {
              "internalType": "uint32",
              "name": "expiry",
              "type": "uint32"
            },
            {
              "internalType": "bytes32",
              "name": "rawDataHash",
              "type": "bytes32"
            },
            {
              "internalType": "uint8[]",
              "name": "signersLeftPerStep",
              "type": "uint8[]"
            },
            {
              "internalType": "uint168[]",
              "name": "packedSignersAndStatus",
              "type": "uint168[]"
            }
          ],
          "internalType": "struct EthSignV4.Contract",
          "name": "",
          "type": "tuple"
        }
      ],
      "stateMutability": "view",
      "type": "function"
    },
    {
      "inputs": [
        {
          "internalType": "bytes32",
          "name": "contractId",
          "type": "bytes32"
        }
      ],
      "name": "hide",
      "outputs": [],
      "stateMutability": "nonpayable",
      "type": "function"
    },
    {
      "inputs": [
        {
          "internalType": "uint256",
          "name": "chainId_",
          "type": "uint256"
        },
        {
          "internalType": "address",
          "name": "forwarder",
          "type": "address"
        }
      ],
      "name": "initialize",
      "outputs": [],
      "stateMutability": "nonpayable",
      "type": "function"
    },
    {
      "inputs": [
        {
          "internalType": "address",
          "name": "forwarder",
          "type": "address"
        }
      ],
      "name": "isTrustedForwarder",
      "outputs": [
        {
          "internalType": "bool",
          "name": "",
          "type": "bool"
        }
      ],
      "stateMutability": "view",
      "type": "function"
    },
    {
      "inputs": [],
      "name": "owner",
      "outputs": [
        {
          "internalType": "address",
          "name": "",
          "type": "address"
        }
      ],
      "stateMutability": "view",
      "type": "function"
    },
    {
      "inputs": [],
      "name": "renounceOwnership",
      "outputs": [],
      "stateMutability": "nonpayable",
      "type": "function"
    },
    {
      "inputs": [
        {
          "internalType": "bytes32",
          "name": "contractId",
          "type": "bytes32"
        },
        {
          "internalType": "uint256",
          "name": "index",
          "type": "uint256"
        },
        {
          "internalType": "bytes",
          "name": "signature",
          "type": "bytes"
        }
      ],
      "name": "sign",
      "outputs": [],
      "stateMutability": "nonpayable",
      "type": "function"
    },
    {
      "inputs": [
        {
          "internalType": "address",
          "name": "newOwner",
          "type": "address"
        }
      ],
      "name": "transferOwnership",
      "outputs": [],
      "stateMutability": "nonpayable",
      "type": "function"
    },
    {
      "inputs": [
        {
          "internalType": "address",
          "name": "newImplementation",
          "type": "address"
        }
      ],
      "name": "upgradeTo",
      "outputs": [],
      "stateMutability": "nonpayable",
      "type": "function"
    },
    {
      "inputs": [
        {
          "internalType": "address",
          "name": "newImplementation",
          "type": "address"
        },
        {
          "internalType": "bytes",
          "name": "data",
          "type": "bytes"
        }
      ],
      "name": "upgradeToAndCall",
      "outputs": [],
      "stateMutability": "payable",
      "type": "function"
    }
  ],
  "bytecode": "0x60a06040523060805234801561001457600080fd5b5060805161230c610045600039600081816103ea0152818161042a015281816104b301526104f3015261230c6000f3fe6080604052600436106100f35760003560e01c806393f2e69e1161008a578063bc60d0ff11610059578063bc60d0ff146102e6578063da35a26f14610306578063e16c7d9814610326578063f2fde38b1461035357600080fd5b806393f2e69e146102345780639a8a059214610294578063aa3c029e146102aa578063ab7a0c4b146102d157600080fd5b80635ed78ed6116100c65780635ed78ed6146101a957806365f2e2d5146101c9578063715018a6146101f75780638da5cb5b1461020c57600080fd5b806328ea3a5a146100f85780633659cfe6146101355780634f1ef28614610157578063572b6c051461016a575b600080fd5b34801561010457600080fd5b506101186101133660046119ef565b610373565b6040516001600160a81b0390911681526020015b60405180910390f35b34801561014157600080fd5b50610155610150366004611a22565b6103df565b005b610155610165366004611a53565b6104a8565b34801561017657600080fd5b50610199610185366004611a22565b60c9546001600160a01b0391821691161490565b604051901515815260200161012c565b3480156101b557600080fd5b506101556101c4366004611b15565b610562565b3480156101d557600080fd5b506101e96101e4366004611bc9565b6105af565b60405190815260200161012c565b34801561020357600080fd5b506101556107a4565b34801561021857600080fd5b506033546040516001600160a01b03909116815260200161012c565b34801561024057600080fd5b5061026b61024f366004611d0a565b600881901c6001600160a01b031691600182811c607f16921690565b604080516001600160a01b03909416845260ff928316602085015291169082015260600161012c565b3480156102a057600080fd5b506101e960fb5481565b3480156102b657600080fd5b506102bf600181565b60405160ff909116815260200161012c565b3480156102dd57600080fd5b506102bf60fe81565b3480156102f257600080fd5b50610155610301366004611d25565b6107f9565b34801561031257600080fd5b50610155610321366004611d78565b610c32565b34801561033257600080fd5b50610346610341366004611b15565b610d7d565b60405161012c9190611ddf565b34801561035f57600080fd5b5061015561036e366004611a22565b610ea2565b600060fe60ff8316106103c15760405162461bcd60e51b815260206004820152601160248201527053746570206f7574206f662072616e676560781b60448201526064015b60405180910390fd5b5060089190911b610100600160a81b031660019190911b60fe161790565b306001600160a01b037f00000000000000000000000000000000000000000000000000000000000000001614156104285760405162461bcd60e51b81526004016103b890611e6d565b7f00000000000000000000000000000000000000000000000000000000000000006001600160a01b031661045a610f59565b6001600160a01b0316146104805760405162461bcd60e51b81526004016103b890611eb9565b61048981610f87565b604080516000808252602082019092526104a591839190610fd0565b50565b306001600160a01b037f00000000000000000000000000000000000000000000000000000000000000001614156104f15760405162461bcd60e51b81526004016103b890611e6d565b7f00000000000000000000000000000000000000000000000000000000000000006001600160a01b0316610523610f59565b6001600160a01b0316146105495760405162461bcd60e51b81526004016103b890611eb9565b61055282610f87565b61055e82826001610fd0565b5050565b7fc6c7eac6763ecb85001e3129c36ca4c97e0c311a3927794f3ef8a81ce74715428161058c61111b565b604080519283526001600160a01b0390911660208301520160405180910390a150565b600060fb548d8d8d8d8d8d8b8b6040516020016105d499989796959493929190611f2e565b60408051601f198184030181529181528151602092830120600081815260fd9093529120600181015491925090156106405760405162461bcd60e51b815260206004820152600f60248201526e436f6e74726163742065786973747360881b60448201526064016103b8565b428c63ffffffff161180610658575063ffffffff8c16155b6106955760405162461bcd60e51b815260206004820152600e60248201526d496e76616c69642065787069727960901b60448201526064016103b8565b8685146106d85760405162461bcd60e51b81526020600482015260116024820152700417272617973206d69736d61746368203607c1b60448201526064016103b8565b7ff0662a62c39bb6a651ed42b995180fb1e728e04c17799dedefb8a3525e227b48828f8f61070461111b565b6040516107149493929190611fe7565b60405180910390a17fc32f2535ab4567f51c7487eb8aaed2e12c29a513dcf813ddc7949af402ad6ca08289898787604051610753959493929190612056565b60405180910390a1805463ffffffff191663ffffffff8d16178155600181018b9055610783600282018b8b6118b1565b5061079260038201878761195a565b50509c9b505050505050505050505050565b6107ac61111b565b6001600160a01b03166107c76033546001600160a01b031690565b6001600160a01b0316146107ed5760405162461bcd60e51b81526004016103b89061208f565b6107f7600061112a565b565b600084815260fd6020526040902061086761081261111b565b61082b60fc5461082689866001015461117c565b6111d8565b85858080601f0160208091040260200160405190810160405280939291908181526020018383808284376000920191909152506111ff92505050565b6108a75760405162461bcd60e51b8152602060048201526011602482015270496e76616c6964207369676e617475726560781b60448201526064016103b8565b6000600160fe60ff168360030187815481106108c5576108c56120c4565b600091825260209091200154166001600160a81b0390811690911c1690506108eb61111b565b6001600160a01b0316600883600301878154811061090b5761090b6120c4565b6000918252602090912001546001600160a81b0316901c6001600160a01b03161461096a5760405162461bcd60e51b815260206004820152600f60248201526e0a6d2cedccae440dad2e6dac2e8c6d608b1b60448201526064016103b8565b600160ff16826003018681548110610984576109846120c4565b600091825260209091200154166001600160a81b0316156109d85760405162461bcd60e51b815260206004820152600e60248201526d105b1c9958591e481cda59db995960921b60448201526064016103b8565b801580610a215750600282016109ef6001836120f0565b815481106109ff576109ff6120c4565b60009182526020918290209181049091015460ff601f9092166101000a900416155b610a5d5760405162461bcd60e51b815260206004820152600d60248201526c2737ba103cb7bab9103a3ab93760991b60448201526064016103b8565b815463ffffffff161580610a79575081544263ffffffff909116115b610aaf5760405162461bcd60e51b8152602060048201526007602482015266115e1c1a5c995960ca1b60448201526064016103b8565b6001826003018681548110610ac657610ac66120c4565b600091825260209091200180546001600160a81b03928316928116929092176001600160a81b03199092169190911790556002820180546001919083908110610b1157610b116120c4565b90600052602060002090602091828204019190068282829054906101000a900460ff16610b3e9190612107565b92506101000a81548160ff021916908360ff1602179055507f1e9d7f1e914f1e3c03237c36ad531b41c9140413f0a4d471d9da3156d14f0c3086610b8061111b565b604080519283526001600160a01b0390911660208301520160405180910390a1816002018181548110610bb557610bb56120c4565b60009182526020918290209181049091015460ff601f9092166101000a900416158015610bf157506002820154610bee906001906120f0565b81145b15610c2a576040518681527f7ecc47f426e9eeb810dc377afa3170124218b73b4b79a50aba48e7b0c97a613b9060200160405180910390a15b505050505050565b600054610100900460ff16610c4d5760005460ff1615610c51565b303b155b610c6d5760405162461bcd60e51b81526004016103b89061212a565b600054610100900460ff16158015610c8f576000805461ffff19166101011790555b610c99838361134d565b60fb54604080517fd87cd6ef79d4e2b95e15ce8abf732db51ec771f1ca2edccf22a46c729ac5647260208201527f60570743c3aa81622759289f024257add09e8c4aa0cf1732651de4dd5231d716918101919091527f13600b294191fc92924bb3ce4b969c1e7e2bab8f4c93c3fc6d0a51733df3c060606082015260808101919091523060a08201527fad27b301e5f37100ff157cc76d31929cff6e67812684f9f8bc3d7f70865dd81060c082015260e00160408051601f19818403018152919052805160209091012060fc558015610d78576000805461ff00191690555b505050565b60408051608080820183526000808352602080840182905260608486018190528085015285825260fd81529084902084519283018552805463ffffffff1683526001810154838301526002810180548651818502810185018852818152959694959294860193830182828015610e3057602002820191906000526020600020906000905b825461010083900a900460ff16815260206001928301818104948501949093039092029101808411610e015790505b5050505050815260200160038201805480602002602001604051908101604052809291908181526020018280548015610e9257602002820191906000526020600020905b81546001600160a81b03168152600190910190602001808311610e74575b5050505050815250509050919050565b610eaa61111b565b6001600160a01b0316610ec56033546001600160a01b031690565b6001600160a01b031614610eeb5760405162461bcd60e51b81526004016103b89061208f565b6001600160a01b038116610f505760405162461bcd60e51b815260206004820152602660248201527f4f776e61626c653a206e6577206f776e657220697320746865207a65726f206160448201526564647265737360d01b60648201526084016103b8565b6104a58161112a565b7f360894a13ba1a3210667c828492db98dca3e2076cc3735a920a3ca505d382bbc546001600160a01b031690565b610f8f61111b565b6001600160a01b0316610faa6033546001600160a01b031690565b6001600160a01b0316146104a55760405162461bcd60e51b81526004016103b89061208f565b6000610fda610f59565b9050610fe5846113de565b600083511180610ff25750815b15611003576110018484611483565b505b7f4910fdfa16fed3260ed0e7147f7cc6da11a60208b5b9406d12a635614ffd9143805460ff1661111457805460ff191660011781556040516001600160a01b038316602482015261108290869060440160408051601f198184030181529190526020810180516001600160e01b0316631b2ce7f360e11b179052611483565b50805460ff19168155611093610f59565b6001600160a01b0316826001600160a01b03161461110b5760405162461bcd60e51b815260206004820152602f60248201527f45524331393637557067726164653a207570677261646520627265616b73206660448201526e75727468657220757067726164657360881b60648201526084016103b8565b6111148561156e565b5050505050565b60006111256115ae565b905090565b603380546001600160a01b038381166001600160a01b0319831681179093556040519116919082907f8be0079c531659141344cd1fd0a4f28419497f9722a3daafe3b4186f6b6457e090600090a35050565b604080517f14bd91134e3467a07c38fd0cbaa1e572cbf6bab435886649b8818f67548650546020820152908101839052606081018290526000906080015b60405160208183030381529060405280519060200120905092915050565b60405161190160f01b602082015260228101839052604281018290526000906062016111ba565b600080600061120e85856115d6565b9092509050600081600481111561122757611227612178565b1480156112455750856001600160a01b0316826001600160a01b0316145b1561125557600192505050611346565b600080876001600160a01b0316631626ba7e60e01b888860405160240161127d9291906121ea565b60408051601f198184030181529181526020820180516001600160e01b03166001600160e01b03199094169390931790925290516112bb919061220b565b600060405180830381855afa9150503d80600081146112f6576040519150601f19603f3d011682016040523d82523d6000602084013e6112fb565b606091505b509150915081801561130e575080516020145b801561133f57508051630b135d3f60e11b906113339083016020908101908401612227565b6001600160e01b031916145b9450505050505b9392505050565b600054610100900460ff166113685760005460ff161561136c565b303b155b6113885760405162461bcd60e51b81526004016103b89061212a565b600054610100900460ff161580156113aa576000805461ffff19166101011790555b60fb8390556113b7611646565b6113c08261167d565b6113c86116b5565b8015610d78576000805461ff0019169055505050565b803b6114425760405162461bcd60e51b815260206004820152602d60248201527f455243313936373a206e657720696d706c656d656e746174696f6e206973206e60448201526c1bdd08184818dbdb9d1c9858dd609a1b60648201526084016103b8565b7f360894a13ba1a3210667c828492db98dca3e2076cc3735a920a3ca505d382bbc80546001600160a01b0319166001600160a01b0392909216919091179055565b6060823b6114e25760405162461bcd60e51b815260206004820152602660248201527f416464726573733a2064656c65676174652063616c6c20746f206e6f6e2d636f6044820152651b9d1c9858dd60d21b60648201526084016103b8565b600080846001600160a01b0316846040516114fd919061220b565b600060405180830381855af49150503d8060008114611538576040519150601f19603f3d011682016040523d82523d6000602084013e61153d565b606091505b509150915061156582826040518060600160405280602781526020016122b0602791396116ec565b95945050505050565b611577816113de565b6040516001600160a01b038216907fbc7cd75a20ee27fd9adebab32041f755214dbc6bffa90cc0225b39da2e5c2d3b90600090a250565b60c9546000906001600160a01b03163314156115d1575060131936013560601c90565b503390565b60008082516041141561160d5760208301516040840151606085015160001a61160187828585611725565b9450945050505061163f565b825160401415611637576020830151604084015161162c868383611812565b93509350505061163f565b506000905060025b9250929050565b600054610100900460ff1661166d5760405162461bcd60e51b81526004016103b890612251565b611675611841565b6107f7611841565b600054610100900460ff166116a45760405162461bcd60e51b81526004016103b890612251565b6116ac611841565b6104a581611868565b600054610100900460ff166116dc5760405162461bcd60e51b81526004016103b890612251565b6107f76116e761111b565b61112a565b606083156116fb575081611346565b82511561170b5782518084602001fd5b8160405162461bcd60e51b81526004016103b8919061229c565b6000807f7fffffffffffffffffffffffffffffff5d576e7357a4501ddfe92f46681b20a083111561175c5750600090506003611809565b8460ff16601b1415801561177457508460ff16601c14155b156117855750600090506004611809565b6040805160008082526020820180845289905260ff881692820192909252606081018690526080810185905260019060a0016020604051602081039080840390855afa1580156117d9573d6000803e3d6000fd5b5050604051601f1901519150506001600160a01b03811661180257600060019250925050611809565b9150600090505b94509492505050565b6000806001600160ff1b03831660ff84901c601b0161183387828885611725565b935093505050935093915050565b600054610100900460ff166107f75760405162461bcd60e51b81526004016103b890612251565b600054610100900460ff1661188f5760405162461bcd60e51b81526004016103b890612251565b60c980546001600160a01b0319166001600160a01b0392909216919091179055565b82805482825590600052602060002090601f0160209004810192821561194a5791602002820160005b8382111561191b57833560ff1683826101000a81548160ff021916908360ff16021790555092602001926001016020816000010492830192600103026118da565b80156119485782816101000a81549060ff021916905560010160208160000104928301926001030261191b565b505b506119569291506119ad565b5090565b82805482825590600052602060002090810192821561194a579160200282015b8281111561194a5781546001600160a81b0319166001600160a81b0384351617825560209092019160019091019061197a565b5b8082111561195657600081556001016119ae565b80356001600160a01b03811681146119d957600080fd5b919050565b803560ff811681146119d957600080fd5b60008060408385031215611a0257600080fd5b611a0b836119c2565b9150611a19602084016119de565b90509250929050565b600060208284031215611a3457600080fd5b611346826119c2565b634e487b7160e01b600052604160045260246000fd5b60008060408385031215611a6657600080fd5b611a6f836119c2565b9150602083013567ffffffffffffffff80821115611a8c57600080fd5b818501915085601f830112611aa057600080fd5b813581811115611ab257611ab2611a3d565b604051601f8201601f19908116603f01168101908382118183101715611ada57611ada611a3d565b81604052828152886020848701011115611af357600080fd5b8260208601602083013760006020848301015280955050505050509250929050565b600060208284031215611b2757600080fd5b5035919050565b60008083601f840112611b4057600080fd5b50813567ffffffffffffffff811115611b5857600080fd5b60208301915083602082850101111561163f57600080fd5b803563ffffffff811681146119d957600080fd5b60008083601f840112611b9657600080fd5b50813567ffffffffffffffff811115611bae57600080fd5b6020830191508360208260051b850101111561163f57600080fd5b60008060008060008060008060008060008060e08d8f031215611beb57600080fd5b67ffffffffffffffff8d351115611c0157600080fd5b611c0e8e8e358f01611b2e565b909c509a50611c1f60208e01611b70565b995060408d0135985067ffffffffffffffff60608e01351115611c4157600080fd5b611c518e60608f01358f01611b84565b909850965067ffffffffffffffff60808e01351115611c6f57600080fd5b611c7f8e60808f01358f01611b84565b909650945067ffffffffffffffff60a08e01351115611c9d57600080fd5b611cad8e60a08f01358f01611b84565b909450925067ffffffffffffffff60c08e01351115611ccb57600080fd5b611cdb8e60c08f01358f01611b84565b81935080925050509295989b509295989b509295989b565b80356001600160a81b03811681146119d957600080fd5b600060208284031215611d1c57600080fd5b61134682611cf3565b60008060008060608587031215611d3b57600080fd5b8435935060208501359250604085013567ffffffffffffffff811115611d6057600080fd5b611d6c87828801611b2e565b95989497509550505050565b60008060408385031215611d8b57600080fd5b82359150611a19602084016119c2565b600081518084526020808501945080840160005b83811015611dd45781516001600160a81b031687529582019590820190600101611daf565b509495945050505050565b6000602080835260a0830163ffffffff8551168285015281850151604085015260408501516080606086015281815180845260c0870191508483019350600092505b80831015611e4457835160ff168252928401926001929092019190840190611e21565b506060870151868203601f190160808801529350611e628185611d9b565b979650505050505050565b6020808252602c908201527f46756e6374696f6e206d7573742062652063616c6c6564207468726f7567682060408201526b19195b1959d85d1958d85b1b60a21b606082015260800190565b6020808252602c908201527f46756e6374696f6e206d7573742062652063616c6c6564207468726f7567682060408201526b6163746976652070726f787960a01b606082015260800190565b81835281816020850137506000828201602090810191909152601f909101601f19169091010190565b8981526000602060c081840152611f4960c084018b8d611f05565b63ffffffff8a1660408501526060840189905283810360808501528681528790820160005b88811015611f945760ff611f81846119de565b1682529183019190830190600101611f6e565b5084810360a0860152858152820190508560005b86811015611fd4576001600160a81b03611fc183611cf3565b1683529183019190830190600101611fa8565b50909d9c50505050505050505050505050565b848152606060208201526000612001606083018587611f05565b905060018060a01b038316604083015295945050505050565b8183526000602080850194508260005b85811015611dd4576001600160a01b03612043836119c2565b168752958201959082019060010161202a565b85815260606020820152600061207060608301868861201a565b828103604084015261208381858761201a565b98975050505050505050565b6020808252818101527f4f776e61626c653a2063616c6c6572206973206e6f7420746865206f776e6572604082015260600190565b634e487b7160e01b600052603260045260246000fd5b634e487b7160e01b600052601160045260246000fd5b600082821015612102576121026120da565b500390565b600060ff821660ff841680821015612121576121216120da565b90039392505050565b6020808252602e908201527f496e697469616c697a61626c653a20636f6e747261637420697320616c72656160408201526d191e481a5b9a5d1a585b1a5e995960921b606082015260800190565b634e487b7160e01b600052602160045260246000fd5b60005b838110156121a9578181015183820152602001612191565b838111156121b8576000848401525b50505050565b600081518084526121d681602086016020860161218e565b601f01601f19169290920160200192915050565b82815260406020820152600061220360408301846121be565b949350505050565b6000825161221d81846020870161218e565b9190910192915050565b60006020828403121561223957600080fd5b81516001600160e01b03198116811461134657600080fd5b6020808252602b908201527f496e697469616c697a61626c653a20636f6e7472616374206973206e6f74206960408201526a6e697469616c697a696e6760a81b606082015260800190565b60208152600061134660208301846121be56fe416464726573733a206c6f772d6c6576656c2064656c65676174652063616c6c206661696c6564a2646970667358221220068c4d6dcc9ad7e98199644a5f9a5542e22326c0ac32e2a463515b3a57add7ac64736f6c634300080c0033",
  "linkReferences": {},
  "deployedLinkReferences": {}
}